{
  "contractName": "BasicMathLib",
  "abi": [
    {
      "constant": true,
      "inputs": [
        {
          "name": "a",
          "type": "uint256"
        },
        {
          "name": "b",
          "type": "uint256"
        }
      ],
      "name": "times",
      "outputs": [
        {
          "name": "err",
          "type": "bool"
        },
        {
          "name": "res",
          "type": "uint256"
        }
      ],
      "payable": false,
      "stateMutability": "view",
      "type": "function"
    },
    {
      "constant": true,
      "inputs": [
        {
          "name": "a",
          "type": "uint256"
        },
        {
          "name": "b",
          "type": "uint256"
        }
      ],
      "name": "plus",
      "outputs": [
        {
          "name": "err",
          "type": "bool"
        },
        {
          "name": "res",
          "type": "uint256"
        }
      ],
      "payable": false,
      "stateMutability": "view",
      "type": "function"
    },
    {
      "constant": true,
      "inputs": [
        {
          "name": "a",
          "type": "uint256"
        },
        {
          "name": "b",
          "type": "uint256"
        }
      ],
      "name": "dividedBy",
      "outputs": [
        {
          "name": "err",
          "type": "bool"
        },
        {
          "name": "i",
          "type": "uint256"
        }
      ],
      "payable": false,
      "stateMutability": "view",
      "type": "function"
    },
    {
      "constant": true,
      "inputs": [
        {
          "name": "a",
          "type": "uint256"
        },
        {
          "name": "b",
          "type": "uint256"
        }
      ],
      "name": "minus",
      "outputs": [
        {
          "name": "err",
          "type": "bool"
        },
        {
          "name": "res",
          "type": "uint256"
        }
      ],
      "payable": false,
      "stateMutability": "view",
      "type": "function"
    }
  ],
  "bytecode": "0x6060604052341561000f57600080fd5b6102668061001e6000396000f300606060405260043610610062576000357c0100000000000000000000000000000000000000000000000000000000900463ffffffff1680631d3b9edf1461006757806366098d4f146100a7578063e39bbf68146100e7578063f4f3bdc114610127575b600080fd5b6100866004808035906020019091908035906020019091905050610167565b60405180831515151581526020018281526020019250505060405180910390f35b6100c66004808035906020019091908035906020019091905050610195565b60405180831515151581526020018281526020019250505060405180910390f35b61010660048080359060200190919080359060200190919050506101c8565b60405180831515151581526020018281526020019250505060405180910390f35b6101466004808035906020019091908035906020019091905050610204565b60405180831515151581526020018281526020019250505060405180910390f35b60008082840290508383820414831517600081146101845761018d565b60019250600091505b509250929050565b600080828401905082811483821117848483031416600081146101b7576101c0565b60019250600091505b509250929050565b60008060008315600081146101e45760019350600092506101fb565b848604915060405182602082015260208101519350505b50509250929050565b6000808284039050600184821485831017858584011416146000811461022957610232565b60019250600091505b5092509290505600a165627a7a723058203bc67e22253bd977bedabdfa14b3527f5c4e8528df794ce66ec3c7c016d5047f0029",
  "source": "pragma solidity ^0.4.18;\n\nlibrary BasicMathLib {\n  \n  function times(uint256 a, uint256 b) public view returns (bool err,uint256 res) {\n    assembly{\n      res := mul(a,b)\n      switch or(iszero(b), eq(div(res,b), a))\n      case 0 {\n        err := 1\n        res := 0\n      }\n    }\n  }\n\n  function dividedBy(uint256 a, uint256 b) public view returns (bool err,uint256 i) {\n    uint256 res;\n    assembly{\n      switch iszero(b)\n      case 0 {\n        res := div(a,b)\n        let loc := mload(0x40)\n        mstore(add(loc,0x20),res)\n        i := mload(add(loc,0x20))\n      }\n      default {\n        err := 1\n        i := 0\n      }\n    }\n  }\n\n  function plus(uint256 a, uint256 b) public view returns (bool err, uint256 res) {\n    assembly{\n      res := add(a,b)\n      switch and(eq(sub(res,b), a), or(gt(res,b),eq(res,b)))\n      case 0 {\n        err := 1\n        res := 0\n      }\n    }\n  }\n\n  function minus(uint256 a, uint256 b) public view returns (bool err,uint256 res) {\n    assembly{\n      res := sub(a,b)\n      switch eq(and(eq(add(res,b), a), or(lt(res,a), eq(res,a))), 1)\n      case 0 {\n        err := 1\n        res := 0\n      }\n    }\n  }\n\n}\n",
  "sourcePath": "D:\\EthereumProjects\\work\\mula\\contracts\\libraries\\BasicMathLib.sol",
  "compiler": {
    "name": "solc",
    "version": "0.4.18+commit.9cf6e910.Emscripten.clang"
  },
  "schemaVersion": "1.0.1",
  "updatedAt": "2018-04-10T12:42:04.343Z"
}