{
  "contractName": "CrowdsaleStorage",
  "abi": [
    {
      "constant": false,
      "inputs": [
        {
          "name": "_contract",
          "type": "address"
        }
      ],
      "name": "deleteContract",
      "outputs": [],
      "payable": false,
      "stateMutability": "nonpayable",
      "type": "function"
    },
    {
      "constant": false,
      "inputs": [
        {
          "name": "_contract",
          "type": "address"
        }
      ],
      "name": "addContract",
      "outputs": [],
      "payable": false,
      "stateMutability": "nonpayable",
      "type": "function"
    },
    {
      "constant": true,
      "inputs": [
        {
          "name": "investor",
          "type": "address"
        }
      ],
      "name": "getInvestorTokens",
      "outputs": [
        {
          "name": "",
          "type": "uint256"
        }
      ],
      "payable": false,
      "stateMutability": "view",
      "type": "function"
    },
    {
      "constant": true,
      "inputs": [
        {
          "name": "investor",
          "type": "address"
        }
      ],
      "name": "getInvestorWei",
      "outputs": [
        {
          "name": "",
          "type": "uint256"
        }
      ],
      "payable": false,
      "stateMutability": "view",
      "type": "function"
    },
    {
      "constant": false,
      "inputs": [
        {
          "name": "_owned",
          "type": "address"
        }
      ],
      "name": "changeOwner",
      "outputs": [],
      "payable": false,
      "stateMutability": "nonpayable",
      "type": "function"
    },
    {
      "constant": true,
      "inputs": [
        {
          "name": "",
          "type": "address"
        }
      ],
      "name": "investorInfo",
      "outputs": [
        {
          "name": "amountOfWeiInvested",
          "type": "uint256"
        },
        {
          "name": "calculatedTokens",
          "type": "uint256"
        }
      ],
      "payable": false,
      "stateMutability": "view",
      "type": "function"
    },
    {
      "constant": false,
      "inputs": [
        {
          "name": "investor",
          "type": "address"
        },
        {
          "name": "weiAmount",
          "type": "uint256"
        },
        {
          "name": "tokenAmount",
          "type": "uint256"
        }
      ],
      "name": "addInvestment",
      "outputs": [
        {
          "name": "",
          "type": "bool"
        }
      ],
      "payable": false,
      "stateMutability": "nonpayable",
      "type": "function"
    },
    {
      "constant": false,
      "inputs": [
        {
          "name": "investor",
          "type": "address"
        },
        {
          "name": "weiAmount",
          "type": "uint256"
        },
        {
          "name": "tokenAmount",
          "type": "uint256"
        }
      ],
      "name": "withdrawInvestment",
      "outputs": [
        {
          "name": "",
          "type": "bool"
        }
      ],
      "payable": false,
      "stateMutability": "nonpayable",
      "type": "function"
    },
    {
      "inputs": [
        {
          "name": "_owned",
          "type": "address"
        }
      ],
      "payable": false,
      "stateMutability": "nonpayable",
      "type": "constructor"
    }
  ],
  "bytecode": "0x6060604052341561000f57600080fd5b604051602080610c0683398101604052808051906020019091905050806000806101000a81548173ffffffffffffffffffffffffffffffffffffffff021916908373ffffffffffffffffffffffffffffffffffffffff16021790555050610b8b8061007b6000396000f30060606040526004361061008e576000357c0100000000000000000000000000000000000000000000000000000000900463ffffffff1680632637a477146100935780635f539d69146100cc578063696c563914610105578063a38d174814610152578063a6f9dae11461019f578063dbcbaca4146101d8578063e2a8ca031461022c578063ecb3dd281461028f575b600080fd5b341561009e57600080fd5b6100ca600480803573ffffffffffffffffffffffffffffffffffffffff169060200190919050506102f2565b005b34156100d757600080fd5b610103600480803573ffffffffffffffffffffffffffffffffffffffff16906020019091905050610468565b005b341561011057600080fd5b61013c600480803573ffffffffffffffffffffffffffffffffffffffff16906020019091905050610590565b6040518082815260200191505060405180910390f35b341561015d57600080fd5b610189600480803573ffffffffffffffffffffffffffffffffffffffff169060200190919050506105dc565b6040518082815260200191505060405180910390f35b34156101aa57600080fd5b6101d6600480803573ffffffffffffffffffffffffffffffffffffffff16906020019091905050610628565b005b34156101e357600080fd5b61020f600480803573ffffffffffffffffffffffffffffffffffffffff1690602001909190505061074c565b604051808381526020018281526020019250505060405180910390f35b341561023757600080fd5b610275600480803573ffffffffffffffffffffffffffffffffffffffff16906020019091908035906020019091908035906020019091905050610770565b604051808215151515815260200191505060405180910390f35b341561029a57600080fd5b6102d8600480803573ffffffffffffffffffffffffffffffffffffffff16906020019091908035906020019091908035906020019091905050610900565b604051808215151515815260200191505060405180910390f35b6000809054906101000a900473ffffffffffffffffffffffffffffffffffffffff1673ffffffffffffffffffffffffffffffffffffffff1663893d20e86000604051602001526040518163ffffffff167c0100000000000000000000000000000000000000000000000000000000028152600401602060405180830381600087803b151561037f57600080fd5b6102c65a03f1151561039057600080fd5b5050506040518051905073ffffffffffffffffffffffffffffffffffffffff163373ffffffffffffffffffffffffffffffffffffffff161415156103d357600080fd5b60018060008373ffffffffffffffffffffffffffffffffffffffff1673ffffffffffffffffffffffffffffffffffffffff1681526020019081526020016000205414151561042057600080fd5b6000600160008373ffffffffffffffffffffffffffffffffffffffff1673ffffffffffffffffffffffffffffffffffffffff1681526020019081526020016000208190555050565b6000809054906101000a900473ffffffffffffffffffffffffffffffffffffffff1673ffffffffffffffffffffffffffffffffffffffff1663893d20e86000604051602001526040518163ffffffff167c0100000000000000000000000000000000000000000000000000000000028152600401602060405180830381600087803b15156104f557600080fd5b6102c65a03f1151561050657600080fd5b5050506040518051905073ffffffffffffffffffffffffffffffffffffffff163373ffffffffffffffffffffffffffffffffffffffff1614151561054957600080fd5b60018060008373ffffffffffffffffffffffffffffffffffffffff1673ffffffffffffffffffffffffffffffffffffffff1681526020019081526020016000208190555050565b6000600260008373ffffffffffffffffffffffffffffffffffffffff1673ffffffffffffffffffffffffffffffffffffffff168152602001908152602001600020600101549050919050565b6000600260008373ffffffffffffffffffffffffffffffffffffffff1673ffffffffffffffffffffffffffffffffffffffff168152602001908152602001600020600001549050919050565b6000809054906101000a900473ffffffffffffffffffffffffffffffffffffffff1673ffffffffffffffffffffffffffffffffffffffff1663893d20e86000604051602001526040518163ffffffff167c0100000000000000000000000000000000000000000000000000000000028152600401602060405180830381600087803b15156106b557600080fd5b6102c65a03f115156106c657600080fd5b5050506040518051905073ffffffffffffffffffffffffffffffffffffffff163373ffffffffffffffffffffffffffffffffffffffff1614151561070957600080fd5b806000806101000a81548173ffffffffffffffffffffffffffffffffffffffff021916908373ffffffffffffffffffffffffffffffffffffffff16021790555050565b60026020528060005260406000206000915090508060000154908060010154905082565b600060018060003373ffffffffffffffffffffffffffffffffffffffff1673ffffffffffffffffffffffffffffffffffffffff168152602001908152602001600020541415156107bf57600080fd5b61081483600260008773ffffffffffffffffffffffffffffffffffffffff1673ffffffffffffffffffffffffffffffffffffffff16815260200190815260200160002060000154610b2890919063ffffffff16565b600260008673ffffffffffffffffffffffffffffffffffffffff1673ffffffffffffffffffffffffffffffffffffffff168152602001908152602001600020600001819055506108af82600260008773ffffffffffffffffffffffffffffffffffffffff1673ffffffffffffffffffffffffffffffffffffffff16815260200190815260200160002060010154610b2890919063ffffffff16565b600260008673ffffffffffffffffffffffffffffffffffffffff1673ffffffffffffffffffffffffffffffffffffffff16815260200190815260200160002060010181905550600190509392505050565b600060018060003373ffffffffffffffffffffffffffffffffffffffff1673ffffffffffffffffffffffffffffffffffffffff1681526020019081526020016000205414151561094f57600080fd5b6109a483600260008773ffffffffffffffffffffffffffffffffffffffff1673ffffffffffffffffffffffffffffffffffffffff16815260200190815260200160002060000154610b4690919063ffffffff16565b600260008673ffffffffffffffffffffffffffffffffffffffff1673ffffffffffffffffffffffffffffffffffffffff16815260200190815260200160002060000181905550600260008573ffffffffffffffffffffffffffffffffffffffff1673ffffffffffffffffffffffffffffffffffffffff16815260200190815260200160002060010154821115610a81576000600260008673ffffffffffffffffffffffffffffffffffffffff1673ffffffffffffffffffffffffffffffffffffffff16815260200190815260200160002060010181905550610b1d565b610ad682600260008773ffffffffffffffffffffffffffffffffffffffff1673ffffffffffffffffffffffffffffffffffffffff16815260200190815260200160002060010154610b4690919063ffffffff16565b600260008673ffffffffffffffffffffffffffffffffffffffff1673ffffffffffffffffffffffffffffffffffffffff168152602001908152602001600020600101819055505b600190509392505050565b6000808284019050838110151515610b3c57fe5b8091505092915050565b6000828211151515610b5457fe5b8183039050929150505600a165627a7a72305820f4fc85aa61057990b2c531f91c4e7492216ae38a306100426bd64d774bb55e4c0029",
  "source": "pragma solidity ^0.4.17;\r\n\r\n/// @author Stefan Ionescu - <stefanionescu@protonmail.com>\r\n\r\nimport \"contracts/Owned.sol\";\r\nimport \"contracts/libraries/SafeMath.sol\";\r\n\r\ncontract CrowdsaleStorage {\r\n\r\n    using SafeMath for uint256;\r\n\r\n    Owned owned;\r\n\r\n    modifier onlyOwner {\r\n\r\n        require(msg.sender == owned.getOwner());\r\n        _;\r\n\r\n    }\r\n\r\n    modifier onlyAllowedContracts {\r\n\r\n        require(allowedContracts[msg.sender] == 1);\r\n        _;\r\n\r\n    }\r\n\r\n    struct Investor {\r\n\r\n        uint256 amountOfWeiInvested;\r\n        uint256 calculatedTokens;\r\n\r\n    }\r\n\r\n    mapping(address => uint256) allowedContracts;\r\n\r\n    //Here we store the information about an investor (wei and amount of tokens for them) until\r\n    //the campaign finishes \r\n    mapping(address => Investor) public investorInfo;\r\n\r\n    function CrowdsaleStorage(address _owned) {\r\n\r\n        owned = Owned(_owned);\r\n\r\n    }\r\n\r\n     function changeOwner(address _owned) public onlyOwner {\r\n\r\n        owned = Owned(_owned);\r\n\r\n    }\r\n\r\n    function addContract(address _contract) public onlyOwner {\r\n\r\n        allowedContracts[_contract] = 1;\r\n\r\n    }\r\n\r\n    function deleteContract(address _contract) public onlyOwner {\r\n\r\n        require(allowedContracts[_contract] == 1);\r\n\r\n        allowedContracts[_contract] = 0;\r\n\r\n    }\r\n\r\n    //Get total amount of wei an investor sent to the campaign\r\n    function getInvestorWei(address investor) public constant returns (uint256) {\r\n\r\n        return investorInfo[investor].amountOfWeiInvested;\r\n\r\n    }\r\n\r\n    //Get how much tokens will be allocated to investor\r\n    function getInvestorTokens(address investor) public constant returns (uint256) {\r\n\r\n        return investorInfo[investor].calculatedTokens;\r\n\r\n    }\r\n\r\n    function addInvestment(address investor, uint256 weiAmount, uint256 tokenAmount) public onlyAllowedContracts returns (bool) {\r\n\r\n        //Set for each investor the wei and tokens amounts\r\n        investorInfo[investor].amountOfWeiInvested = investorInfo[investor].amountOfWeiInvested.add(weiAmount);\r\n\r\n        investorInfo[investor].calculatedTokens = investorInfo[investor].calculatedTokens.add(tokenAmount);\r\n\r\n        return true;\r\n\r\n    }\r\n\r\n    function withdrawInvestment(address investor, uint256 weiAmount, uint256 tokenAmount) public onlyAllowedContracts returns (bool) {\r\n\r\n        investorInfo[investor].amountOfWeiInvested = investorInfo[investor].amountOfWeiInvested.sub(weiAmount);\r\n\r\n        if (tokenAmount > investorInfo[investor].calculatedTokens) {\r\n\r\n            investorInfo[investor].calculatedTokens = 0;\r\n\r\n        } else {\r\n\r\n            investorInfo[investor].calculatedTokens = \r\n                investorInfo[investor].calculatedTokens.sub(tokenAmount);\r\n\r\n        }\r\n\r\n        return true;\r\n\r\n    }\r\n\r\n}",
  "sourcePath": "D:\\EthereumProjects\\work\\mula\\contracts\\storage\\CrowdsaleStorage.sol",
  "compiler": {
    "name": "solc",
    "version": "0.4.18+commit.9cf6e910.Emscripten.clang"
  },
  "schemaVersion": "1.0.1",
  "updatedAt": "2018-04-10T12:42:43.512Z"
}