{
  "contractName": "MulaCrowdsale",
  "abi": [
    {
      "constant": true,
      "inputs": [
        {
          "name": "_investment",
          "type": "uint256"
        }
      ],
      "name": "tokensPerInvestment",
      "outputs": [
        {
          "name": "",
          "type": "uint256"
        }
      ],
      "payable": false,
      "stateMutability": "view",
      "type": "function"
    },
    {
      "constant": false,
      "inputs": [],
      "name": "escapeHatch",
      "outputs": [],
      "payable": false,
      "stateMutability": "nonpayable",
      "type": "function"
    },
    {
      "constant": true,
      "inputs": [],
      "name": "investorLimit",
      "outputs": [
        {
          "name": "",
          "type": "uint256"
        }
      ],
      "payable": false,
      "stateMutability": "view",
      "type": "function"
    },
    {
      "constant": true,
      "inputs": [],
      "name": "rate",
      "outputs": [
        {
          "name": "",
          "type": "uint256"
        }
      ],
      "payable": false,
      "stateMutability": "view",
      "type": "function"
    },
    {
      "constant": true,
      "inputs": [],
      "name": "endTime",
      "outputs": [
        {
          "name": "",
          "type": "uint256"
        }
      ],
      "payable": false,
      "stateMutability": "view",
      "type": "function"
    },
    {
      "constant": true,
      "inputs": [
        {
          "name": "investment",
          "type": "uint256"
        },
        {
          "name": "investor",
          "type": "address"
        }
      ],
      "name": "computeAllowedInvestment",
      "outputs": [
        {
          "name": "",
          "type": "uint256"
        }
      ],
      "payable": false,
      "stateMutability": "view",
      "type": "function"
    },
    {
      "constant": true,
      "inputs": [],
      "name": "weiRaised",
      "outputs": [
        {
          "name": "",
          "type": "uint256"
        }
      ],
      "payable": false,
      "stateMutability": "view",
      "type": "function"
    },
    {
      "constant": false,
      "inputs": [],
      "name": "claimTokens",
      "outputs": [],
      "payable": false,
      "stateMutability": "nonpayable",
      "type": "function"
    },
    {
      "constant": false,
      "inputs": [],
      "name": "pauseContribution",
      "outputs": [],
      "payable": false,
      "stateMutability": "nonpayable",
      "type": "function"
    },
    {
      "constant": false,
      "inputs": [],
      "name": "addDaysToArray",
      "outputs": [
        {
          "name": "",
          "type": "uint256"
        }
      ],
      "payable": false,
      "stateMutability": "nonpayable",
      "type": "function"
    },
    {
      "constant": false,
      "inputs": [
        {
          "name": "_wallet",
          "type": "address"
        }
      ],
      "name": "switchWallet",
      "outputs": [],
      "payable": false,
      "stateMutability": "nonpayable",
      "type": "function"
    },
    {
      "constant": true,
      "inputs": [],
      "name": "paused",
      "outputs": [
        {
          "name": "",
          "type": "bool"
        }
      ],
      "payable": false,
      "stateMutability": "view",
      "type": "function"
    },
    {
      "constant": true,
      "inputs": [],
      "name": "getCurrentTimestamp",
      "outputs": [
        {
          "name": "",
          "type": "uint256"
        }
      ],
      "payable": false,
      "stateMutability": "view",
      "type": "function"
    },
    {
      "constant": true,
      "inputs": [],
      "name": "startTime",
      "outputs": [
        {
          "name": "",
          "type": "uint256"
        }
      ],
      "payable": false,
      "stateMutability": "view",
      "type": "function"
    },
    {
      "constant": false,
      "inputs": [
        {
          "name": "_storageAddress",
          "type": "address"
        }
      ],
      "name": "changeCrowdsaleStorage",
      "outputs": [],
      "payable": false,
      "stateMutability": "nonpayable",
      "type": "function"
    },
    {
      "constant": true,
      "inputs": [],
      "name": "weiCap",
      "outputs": [
        {
          "name": "",
          "type": "uint256"
        }
      ],
      "payable": false,
      "stateMutability": "view",
      "type": "function"
    },
    {
      "constant": false,
      "inputs": [
        {
          "name": "_token",
          "type": "address"
        }
      ],
      "name": "switchTokenController",
      "outputs": [],
      "payable": false,
      "stateMutability": "nonpayable",
      "type": "function"
    },
    {
      "constant": false,
      "inputs": [
        {
          "name": "_day",
          "type": "uint256"
        },
        {
          "name": "_month",
          "type": "uint256"
        },
        {
          "name": "_year",
          "type": "uint256"
        },
        {
          "name": "newBonus",
          "type": "uint256"
        }
      ],
      "name": "changeBonusForDate",
      "outputs": [],
      "payable": false,
      "stateMutability": "nonpayable",
      "type": "function"
    },
    {
      "constant": false,
      "inputs": [
        {
          "name": "gasLimit",
          "type": "uint256"
        }
      ],
      "name": "changeMaximumGasLimit",
      "outputs": [],
      "payable": false,
      "stateMutability": "nonpayable",
      "type": "function"
    },
    {
      "constant": true,
      "inputs": [],
      "name": "getSaleStart",
      "outputs": [
        {
          "name": "",
          "type": "uint256"
        },
        {
          "name": "",
          "type": "uint256"
        },
        {
          "name": "",
          "type": "uint256"
        }
      ],
      "payable": false,
      "stateMutability": "view",
      "type": "function"
    },
    {
      "constant": false,
      "inputs": [
        {
          "name": "_owned",
          "type": "address"
        }
      ],
      "name": "changeOwned",
      "outputs": [],
      "payable": false,
      "stateMutability": "nonpayable",
      "type": "function"
    },
    {
      "constant": true,
      "inputs": [
        {
          "name": "_day",
          "type": "uint256"
        },
        {
          "name": "_month",
          "type": "uint256"
        },
        {
          "name": "_year",
          "type": "uint256"
        }
      ],
      "name": "checkIfBonusDay",
      "outputs": [
        {
          "name": "",
          "type": "uint256"
        }
      ],
      "payable": false,
      "stateMutability": "view",
      "type": "function"
    },
    {
      "constant": true,
      "inputs": [],
      "name": "investorInterfaceData",
      "outputs": [
        {
          "name": "",
          "type": "uint256"
        },
        {
          "name": "",
          "type": "uint256"
        },
        {
          "name": "",
          "type": "uint256"
        },
        {
          "name": "",
          "type": "uint256"
        }
      ],
      "payable": false,
      "stateMutability": "view",
      "type": "function"
    },
    {
      "constant": true,
      "inputs": [],
      "name": "blockAttack",
      "outputs": [
        {
          "name": "",
          "type": "uint256"
        }
      ],
      "payable": false,
      "stateMutability": "view",
      "type": "function"
    },
    {
      "constant": false,
      "inputs": [
        {
          "name": "investor",
          "type": "address"
        }
      ],
      "name": "distributeTokens",
      "outputs": [],
      "payable": false,
      "stateMutability": "nonpayable",
      "type": "function"
    },
    {
      "constant": false,
      "inputs": [],
      "name": "resumeContribution",
      "outputs": [],
      "payable": false,
      "stateMutability": "nonpayable",
      "type": "function"
    },
    {
      "constant": false,
      "inputs": [
        {
          "name": "baseRate",
          "type": "uint256"
        }
      ],
      "name": "changeBaseRate",
      "outputs": [],
      "payable": false,
      "stateMutability": "nonpayable",
      "type": "function"
    },
    {
      "constant": false,
      "inputs": [
        {
          "name": "dateAPI",
          "type": "address"
        }
      ],
      "name": "changeDateTimeAPI",
      "outputs": [],
      "payable": false,
      "stateMutability": "nonpayable",
      "type": "function"
    },
    {
      "constant": false,
      "inputs": [
        {
          "name": "hoursUntilStart",
          "type": "uint256"
        },
        {
          "name": "hoursUntilEnd",
          "type": "uint256"
        },
        {
          "name": "_rate",
          "type": "uint256"
        },
        {
          "name": "_wallet",
          "type": "address"
        },
        {
          "name": "_cap",
          "type": "uint256"
        },
        {
          "name": "_token",
          "type": "address"
        },
        {
          "name": "_storageAddress",
          "type": "address"
        },
        {
          "name": "dateTimeAddr",
          "type": "address"
        }
      ],
      "name": "initialize",
      "outputs": [],
      "payable": false,
      "stateMutability": "nonpayable",
      "type": "function"
    },
    {
      "constant": false,
      "inputs": [],
      "name": "buyTokens",
      "outputs": [],
      "payable": true,
      "stateMutability": "payable",
      "type": "function"
    },
    {
      "constant": false,
      "inputs": [
        {
          "name": "limit",
          "type": "uint256"
        }
      ],
      "name": "limitPerInvestor",
      "outputs": [],
      "payable": false,
      "stateMutability": "nonpayable",
      "type": "function"
    },
    {
      "constant": true,
      "inputs": [
        {
          "name": "bonus",
          "type": "uint256"
        }
      ],
      "name": "getBonusRate",
      "outputs": [
        {
          "name": "",
          "type": "uint256"
        }
      ],
      "payable": false,
      "stateMutability": "view",
      "type": "function"
    },
    {
      "constant": true,
      "inputs": [],
      "name": "MAX_GAS_PRICE",
      "outputs": [
        {
          "name": "",
          "type": "uint256"
        }
      ],
      "payable": false,
      "stateMutability": "view",
      "type": "function"
    },
    {
      "constant": false,
      "inputs": [
        {
          "name": "etherAmount",
          "type": "uint256"
        }
      ],
      "name": "refundInvestment",
      "outputs": [],
      "payable": false,
      "stateMutability": "nonpayable",
      "type": "function"
    },
    {
      "constant": false,
      "inputs": [],
      "name": "safeWithdrawal",
      "outputs": [],
      "payable": false,
      "stateMutability": "nonpayable",
      "type": "function"
    },
    {
      "inputs": [
        {
          "name": "_owned",
          "type": "address"
        }
      ],
      "payable": false,
      "stateMutability": "nonpayable",
      "type": "constructor"
    },
    {
      "payable": true,
      "stateMutability": "payable",
      "type": "fallback"
    },
    {
      "anonymous": false,
      "inputs": [
        {
          "indexed": false,
          "name": "length",
          "type": "uint256"
        }
      ],
      "name": "AddedDaysToArray",
      "type": "event"
    },
    {
      "anonymous": false,
      "inputs": [
        {
          "indexed": true,
          "name": "purchaser",
          "type": "address"
        },
        {
          "indexed": false,
          "name": "value",
          "type": "uint256"
        },
        {
          "indexed": false,
          "name": "amount",
          "type": "uint256"
        }
      ],
      "name": "TokenPurchase",
      "type": "event"
    },
    {
      "anonymous": false,
      "inputs": [
        {
          "indexed": false,
          "name": "amount",
          "type": "uint256"
        }
      ],
      "name": "TransferredToWallet",
      "type": "event"
    },
    {
      "anonymous": false,
      "inputs": [
        {
          "indexed": false,
          "name": "sender",
          "type": "address"
        },
        {
          "indexed": false,
          "name": "who",
          "type": "address"
        },
        {
          "indexed": false,
          "name": "amount",
          "type": "uint256"
        }
      ],
      "name": "AllocateTokens",
      "type": "event"
    }
  ],
  "bytecode": "0x60606040526000600555677ce66c50e28400006006556000600c55670de0b6b3a7640000600d55341561003157600080fd5b6040516020806137fd833981016040528080519060200190919050506000600f60006101000a81548160ff02191690831515021790555080600360006101000a81548173ffffffffffffffffffffffffffffffffffffffff021916908373ffffffffffffffffffffffffffffffffffffffff16021790555050613744806100b96000396000f3006060604052600436106101b7576000357c0100000000000000000000000000000000000000000000000000000000900463ffffffff168063111dda3b146101c15780631554611f146101f857806321fb27311461020d5780632c4e722e146102365780633197cbb61461025f5780633344694d146102885780634042b66f146102de57806348c54b9d146103075780634b8adcf71461031c5780634dd1f62d14610331578063511d68fb1461035a5780635c975abb146103935780636c9230db146103c057806378e97925146103e9578063811383a91461041257806384fe50291461044b5780638a9f328a146104745780638d2b9cc2146104ad5780638ec23a0c146104eb578063969235a41461050e57806397ee470014610545578063a1559f571461057e578063b0dc5033146105c7578063b1b1164614610605578063b1d17c981461062e578063b681f9f614610667578063bf27cddb1461067c578063bf88ecf11461069f578063c705be4a146106d8578063d0febe4c14610792578063de39b94c1461079c578063e37cd202146107bf578063e3bbb4f1146107f6578063fcf3a4c21461081f578063fd6b7ef814610842575b6101bf610857565b005b34156101cc57600080fd5b6101e26004808035906020019091905050610b3e565b6040518082815260200191505060405180910390f35b341561020357600080fd5b61020b610d9c565b005b341561021857600080fd5b610220610ea1565b6040518082815260200191505060405180910390f35b341561024157600080fd5b610249610ea7565b6040518082815260200191505060405180910390f35b341561026a57600080fd5b610272610ead565b6040518082815260200191505060405180910390f35b341561029357600080fd5b6102c8600480803590602001909190803573ffffffffffffffffffffffffffffffffffffffff16906020019091905050610eb3565b6040518082815260200191505060405180910390f35b34156102e957600080fd5b6102f1610ffe565b6040518082815260200191505060405180910390f35b341561031257600080fd5b61031a611004565b005b341561032757600080fd5b61032f6114d1565b005b341561033c57600080fd5b6103446115d0565b6040518082815260200191505060405180910390f35b341561036557600080fd5b610391600480803573ffffffffffffffffffffffffffffffffffffffff169060200190919050506119b3565b005b341561039e57600080fd5b6103a6611aea565b604051808215151515815260200191505060405180910390f35b34156103cb57600080fd5b6103d3611afd565b6040518082815260200191505060405180910390f35b34156103f457600080fd5b6103fc611b05565b6040518082815260200191505060405180910390f35b341561041d57600080fd5b610449600480803573ffffffffffffffffffffffffffffffffffffffff16906020019091905050611b0b565b005b341561045657600080fd5b61045e611c41565b6040518082815260200191505060405180910390f35b341561047f57600080fd5b6104ab600480803573ffffffffffffffffffffffffffffffffffffffff16906020019091905050611c47565b005b34156104b857600080fd5b6104e96004808035906020019091908035906020019091908035906020019091908035906020019091905050611d7e565b005b34156104f657600080fd5b61050c6004808035906020019091905050611ece565b005b341561051957600080fd5b610521611fcb565b60405180848152602001838152602001828152602001935050505060405180910390f35b341561055057600080fd5b61057c600480803573ffffffffffffffffffffffffffffffffffffffff16906020019091905050612210565b005b341561058957600080fd5b6105b16004808035906020019091908035906020019091908035906020019091905050612336565b6040518082815260200191505060405180910390f35b34156105d257600080fd5b6105da6123cb565b6040518085815260200184815260200183815260200182815260200194505050505060405180910390f35b341561061057600080fd5b610618612400565b6040518082815260200191505060405180910390f35b341561063957600080fd5b610665600480803573ffffffffffffffffffffffffffffffffffffffff16906020019091905050612406565b005b341561067257600080fd5b61067a6129f2565b005b341561068757600080fd5b61069d6004808035906020019091905050612b02565b005b34156106aa57600080fd5b6106d6600480803573ffffffffffffffffffffffffffffffffffffffff16906020019091905050612bff565b005b34156106e357600080fd5b610790600480803590602001909190803590602001909190803590602001909190803573ffffffffffffffffffffffffffffffffffffffff1690602001909190803590602001909190803573ffffffffffffffffffffffffffffffffffffffff1690602001909190803573ffffffffffffffffffffffffffffffffffffffff1690602001909190803573ffffffffffffffffffffffffffffffffffffffff16906020019091905050612d25565b005b61079a610857565b005b34156107a757600080fd5b6107bd6004808035906020019091905050612fd9565b005b34156107ca57600080fd5b6107e060048080359060200190919050506130d6565b6040518082815260200191505060405180910390f35b341561080157600080fd5b610809613107565b6040518082815260200191505060405180910390f35b341561082a57600080fd5b610840600480803590602001909190505061310d565b005b341561084d57600080fd5b6108556133fe565b005b6000806006543a1115151561086b57600080fd5b600060055414151561087c57600080fd5b60003411151561088b57600080fd5b60006009541415151561089d57600080fd5b600073ffffffffffffffffffffffffffffffffffffffff166000809054906101000a900473ffffffffffffffffffffffffffffffffffffffff1673ffffffffffffffffffffffffffffffffffffffff16141515156108fa57600080fd5b6109043433610eb3565b9150600b5482118061092b5750600b5461092983600a5461361a90919063ffffffff16565b115b1561094a57610947600a54600b5461363890919063ffffffff16565b91505b60008211151561095957600080fd5b6109633383613651565b151561096e57600080fd5b61097734610b3e565b905061098e82600a5461361a90919063ffffffff16565b600a819055506000809054906101000a900473ffffffffffffffffffffffffffffffffffffffff1673ffffffffffffffffffffffffffffffffffffffff1663e2a8ca033384846000604051602001526040518463ffffffff167c0100000000000000000000000000000000000000000000000000000000028152600401808473ffffffffffffffffffffffffffffffffffffffff1673ffffffffffffffffffffffffffffffffffffffff1681526020018381526020018281526020019350505050602060405180830381600087803b1515610a6857600080fd5b6102c65a03f11515610a7957600080fd5b50505060405180519050503373ffffffffffffffffffffffffffffffffffffffff167fcd60aa75dea3072fbc07ae6d7d856b5dc5f4eee88854f5b4abf7b680ef8bc50f8383604051808381526020018281526020019250505060405180910390a2600090508134141515610b3a573373ffffffffffffffffffffffffffffffffffffffff166108fc610b14843461363890919063ffffffff16565b9081150290604051600060405180830381858888f193505050501515610b3957600080fd5b5b5050565b600080600080610d72600260009054906101000a900473ffffffffffffffffffffffffffffffffffffffff1673ffffffffffffffffffffffffffffffffffffffff166365c72840426000604051602001526040518263ffffffff167c010000000000000000000000000000000000000000000000000000000002815260040180828152602001915050602060405180830381600087803b1515610be057600080fd5b6102c65a03f11515610bf157600080fd5b5050506040518051905060ff16600260009054906101000a900473ffffffffffffffffffffffffffffffffffffffff1673ffffffffffffffffffffffffffffffffffffffff1663a324ad24426000604051602001526040518263ffffffff167c010000000000000000000000000000000000000000000000000000000002815260040180828152602001915050602060405180830381600087803b1515610c9757600080fd5b6102c65a03f11515610ca857600080fd5b5050506040518051905060ff16600260009054906101000a900473ffffffffffffffffffffffffffffffffffffffff1673ffffffffffffffffffffffffffffffffffffffff166392d66313426000604051602001526040518263ffffffff167c010000000000000000000000000000000000000000000000000000000002815260040180828152602001915050602060405180830381600087803b1515610d4e57600080fd5b6102c65a03f11515610d5f57600080fd5b5050506040518051905061ffff16612336565b9250610d7d836130d6565b9150600d54858302811515610d8e57fe5b049050809350505050919050565b600360009054906101000a900473ffffffffffffffffffffffffffffffffffffffff1673ffffffffffffffffffffffffffffffffffffffff1663893d20e86000604051602001526040518163ffffffff167c0100000000000000000000000000000000000000000000000000000000028152600401602060405180830381600087803b1515610e2a57600080fd5b6102c65a03f11515610e3b57600080fd5b5050506040518051905073ffffffffffffffffffffffffffffffffffffffff163373ffffffffffffffffffffffffffffffffffffffff16141515610e7e57600080fd5b60006005541415610e96576001600581905550610e9f565b60006005819055505b565b600c5481565b60095481565b60085481565b600080600080600c541415610eca57849250610ff6565b8491506000809054906101000a900473ffffffffffffffffffffffffffffffffffffffff1673ffffffffffffffffffffffffffffffffffffffff1663a38d1748856000604051602001526040518263ffffffff167c0100000000000000000000000000000000000000000000000000000000028152600401808273ffffffffffffffffffffffffffffffffffffffff1673ffffffffffffffffffffffffffffffffffffffff168152602001915050602060405180830381600087803b1515610f9157600080fd5b6102c65a03f11515610fa257600080fd5b505050604051805190509050600c5481101515610fbe57600080fd5b600c54610fd4828461361a90919063ffffffff16565b1115610ff257610fef81600c5461363890919063ffffffff16565b91505b8192505b505092915050565b600a5481565b6000806008544210158061101c5750600b54600a5410155b151561102757600080fd5b600073ffffffffffffffffffffffffffffffffffffffff166000809054906101000a900473ffffffffffffffffffffffffffffffffffffffff1673ffffffffffffffffffffffffffffffffffffffff161415151561108457600080fd5b6000809054906101000a900473ffffffffffffffffffffffffffffffffffffffff1673ffffffffffffffffffffffffffffffffffffffff1663a38d1748336000604051602001526040518263ffffffff167c0100000000000000000000000000000000000000000000000000000000028152600401808273ffffffffffffffffffffffffffffffffffffffff1673ffffffffffffffffffffffffffffffffffffffff168152602001915050602060405180830381600087803b151561114857600080fd5b6102c65a03f1151561115957600080fd5b50505060405180519050915060008211151561117457600080fd5b6000809054906101000a900473ffffffffffffffffffffffffffffffffffffffff1673ffffffffffffffffffffffffffffffffffffffff1663696c5639336000604051602001526040518263ffffffff167c0100000000000000000000000000000000000000000000000000000000028152600401808273ffffffffffffffffffffffffffffffffffffffff1673ffffffffffffffffffffffffffffffffffffffff168152602001915050602060405180830381600087803b151561123857600080fd5b6102c65a03f1151561124957600080fd5b5050506040518051905090506000809054906101000a900473ffffffffffffffffffffffffffffffffffffffff1673ffffffffffffffffffffffffffffffffffffffff1663ecb3dd283384846000604051602001526040518463ffffffff167c0100000000000000000000000000000000000000000000000000000000028152600401808473ffffffffffffffffffffffffffffffffffffffff1673ffffffffffffffffffffffffffffffffffffffff1681526020018381526020018281526020019350505050602060405180830381600087803b151561132957600080fd5b6102c65a03f1151561133a57600080fd5b5050506040518051905050600160009054906101000a900473ffffffffffffffffffffffffffffffffffffffff1673ffffffffffffffffffffffffffffffffffffffff166386ce028533836000604051602001526040518363ffffffff167c0100000000000000000000000000000000000000000000000000000000028152600401808373ffffffffffffffffffffffffffffffffffffffff1673ffffffffffffffffffffffffffffffffffffffff16815260200182815260200192505050602060405180830381600087803b151561141257600080fd5b6102c65a03f1151561142357600080fd5b50505060405180519050507f4acac65477a8c4c01fac952eb3dee1532445eb696dd114c3003c189656673eb3333383604051808473ffffffffffffffffffffffffffffffffffffffff1673ffffffffffffffffffffffffffffffffffffffff1681526020018373ffffffffffffffffffffffffffffffffffffffff1673ffffffffffffffffffffffffffffffffffffffff168152602001828152602001935050505060405180910390a15050565b600360009054906101000a900473ffffffffffffffffffffffffffffffffffffffff1673ffffffffffffffffffffffffffffffffffffffff1663893d20e86000604051602001526040518163ffffffff167c0100000000000000000000000000000000000000000000000000000000028152600401602060405180830381600087803b151561155f57600080fd5b6102c65a03f1151561157057600080fd5b5050506040518051905073ffffffffffffffffffffffffffffffffffffffff163373ffffffffffffffffffffffffffffffffffffffff161415156115b357600080fd5b6001600f60006101000a81548160ff021916908315150217905550565b600080600080600080600360009054906101000a900473ffffffffffffffffffffffffffffffffffffffff1673ffffffffffffffffffffffffffffffffffffffff1663893d20e86000604051602001526040518163ffffffff167c0100000000000000000000000000000000000000000000000000000000028152600401602060405180830381600087803b151561166757600080fd5b6102c65a03f1151561167857600080fd5b5050506040518051905073ffffffffffffffffffffffffffffffffffffffff163373ffffffffffffffffffffffffffffffffffffffff161415156116bb57600080fd5b600754945060009350600092505b600260009054906101000a900473ffffffffffffffffffffffffffffffffffffffff1673ffffffffffffffffffffffffffffffffffffffff166392d66313866000604051602001526040518263ffffffff167c010000000000000000000000000000000000000000000000000000000002815260040180828152602001915050602060405180830381600087803b151561176257600080fd5b6102c65a03f1151561177357600080fd5b5050506040518051905061ffff169250600260009054906101000a900473ffffffffffffffffffffffffffffffffffffffff1673ffffffffffffffffffffffffffffffffffffffff1663a324ad24866000604051602001526040518263ffffffff167c010000000000000000000000000000000000000000000000000000000002815260040180828152602001915050602060405180830381600087803b151561181c57600080fd5b6102c65a03f1151561182d57600080fd5b5050506040518051905060ff1691506118506064846136d290919063ffffffff16565b9250611865828461361a90919063ffffffff16565b9250600260009054906101000a900473ffffffffffffffffffffffffffffffffffffffff1673ffffffffffffffffffffffffffffffffffffffff166365c72840866000604051602001526040518263ffffffff167c010000000000000000000000000000000000000000000000000000000002815260040180828152602001915050602060405180830381600087803b151561190057600080fd5b6102c65a03f1151561191157600080fd5b5050506040518051905060ff1690506119346064846136d290919063ffffffff16565b9250611949818461361a90919063ffffffff16565b925083601403600e6000858152602001908152602001600020819055506000925061197e60018561361a90919063ffffffff16565b9350611996620151808661361a90919063ffffffff16565b9450600854851115156119a8576116c9565b839550505050505090565b600360009054906101000a900473ffffffffffffffffffffffffffffffffffffffff1673ffffffffffffffffffffffffffffffffffffffff1663893d20e86000604051602001526040518163ffffffff167c0100000000000000000000000000000000000000000000000000000000028152600401602060405180830381600087803b1515611a4157600080fd5b6102c65a03f11515611a5257600080fd5b5050506040518051905073ffffffffffffffffffffffffffffffffffffffff163373ffffffffffffffffffffffffffffffffffffffff16141515611a9557600080fd5b6000600554141515611aa657600080fd5b80600460006101000a81548173ffffffffffffffffffffffffffffffffffffffff021916908373ffffffffffffffffffffffffffffffffffffffff16021790555050565b600f60009054906101000a900460ff1681565b600042905090565b60075481565b600360009054906101000a900473ffffffffffffffffffffffffffffffffffffffff1673ffffffffffffffffffffffffffffffffffffffff1663893d20e86000604051602001526040518163ffffffff167c0100000000000000000000000000000000000000000000000000000000028152600401602060405180830381600087803b1515611b9957600080fd5b6102c65a03f11515611baa57600080fd5b5050506040518051905073ffffffffffffffffffffffffffffffffffffffff163373ffffffffffffffffffffffffffffffffffffffff16141515611bed57600080fd5b6000600554141515611bfe57600080fd5b806000806101000a81548173ffffffffffffffffffffffffffffffffffffffff021916908373ffffffffffffffffffffffffffffffffffffffff16021790555050565b600b5481565b600360009054906101000a900473ffffffffffffffffffffffffffffffffffffffff1673ffffffffffffffffffffffffffffffffffffffff1663893d20e86000604051602001526040518163ffffffff167c0100000000000000000000000000000000000000000000000000000000028152600401602060405180830381600087803b1515611cd557600080fd5b6102c65a03f11515611ce657600080fd5b5050506040518051905073ffffffffffffffffffffffffffffffffffffffff163373ffffffffffffffffffffffffffffffffffffffff16141515611d2957600080fd5b6000600554141515611d3a57600080fd5b80600160006101000a81548173ffffffffffffffffffffffffffffffffffffffff021916908373ffffffffffffffffffffffffffffffffffffffff16021790555050565b6000600360009054906101000a900473ffffffffffffffffffffffffffffffffffffffff1673ffffffffffffffffffffffffffffffffffffffff1663893d20e86000604051602001526040518163ffffffff167c0100000000000000000000000000000000000000000000000000000000028152600401602060405180830381600087803b1515611e0e57600080fd5b6102c65a03f11515611e1f57600080fd5b5050506040518051905073ffffffffffffffffffffffffffffffffffffffff163373ffffffffffffffffffffffffffffffffffffffff16141515611e6257600080fd5b611ead85611e9f6064611e9188611e8360648a6136d290919063ffffffff16565b61361a90919063ffffffff16565b6136d290919063ffffffff16565b61361a90919063ffffffff16565b905081600e6000838152602001908152602001600020819055505050505050565b600360009054906101000a900473ffffffffffffffffffffffffffffffffffffffff1673ffffffffffffffffffffffffffffffffffffffff1663893d20e86000604051602001526040518163ffffffff167c0100000000000000000000000000000000000000000000000000000000028152600401602060405180830381600087803b1515611f5c57600080fd5b6102c65a03f11515611f6d57600080fd5b5050506040518051905073ffffffffffffffffffffffffffffffffffffffff163373ffffffffffffffffffffffffffffffffffffffff16141515611fb057600080fd5b6000600554141515611fc157600080fd5b8060068190555050565b6000806000600260009054906101000a900473ffffffffffffffffffffffffffffffffffffffff1673ffffffffffffffffffffffffffffffffffffffff166392d663136007546000604051602001526040518263ffffffff167c010000000000000000000000000000000000000000000000000000000002815260040180828152602001915050602060405180830381600087803b151561206b57600080fd5b6102c65a03f1151561207c57600080fd5b50505060405180519050600260009054906101000a900473ffffffffffffffffffffffffffffffffffffffff1673ffffffffffffffffffffffffffffffffffffffff1663a324ad246007546000604051602001526040518263ffffffff167c010000000000000000000000000000000000000000000000000000000002815260040180828152602001915050602060405180830381600087803b151561212157600080fd5b6102c65a03f1151561213257600080fd5b50505060405180519050600260009054906101000a900473ffffffffffffffffffffffffffffffffffffffff1673ffffffffffffffffffffffffffffffffffffffff166365c728406007546000604051602001526040518263ffffffff167c010000000000000000000000000000000000000000000000000000000002815260040180828152602001915050602060405180830381600087803b15156121d757600080fd5b6102c65a03f115156121e857600080fd5b505050604051805190508261ffff1692508160ff1691508060ff169050925092509250909192565b600360009054906101000a900473ffffffffffffffffffffffffffffffffffffffff1673ffffffffffffffffffffffffffffffffffffffff1663893d20e86000604051602001526040518163ffffffff167c0100000000000000000000000000000000000000000000000000000000028152600401602060405180830381600087803b151561229e57600080fd5b6102c65a03f115156122af57600080fd5b5050506040518051905073ffffffffffffffffffffffffffffffffffffffff163373ffffffffffffffffffffffffffffffffffffffff161415156122f257600080fd5b80600360006101000a81548173ffffffffffffffffffffffffffffffffffffffff021916908373ffffffffffffffffffffffffffffffffffffffff16021790555050565b6000806123848561237660646123688861235a60648a6136d290919063ffffffff16565b61361a90919063ffffffff16565b6136d290919063ffffffff16565b61361a90919063ffffffff16565b90506000600e6000838152602001908152602001600020541415156123be57600e60008281526020019081526020016000205491506123c3565b600091505b509392505050565b6000806000806007546008543073ffffffffffffffffffffffffffffffffffffffff1631600b54935093509350935090919293565b60055481565b600080600360009054906101000a900473ffffffffffffffffffffffffffffffffffffffff1673ffffffffffffffffffffffffffffffffffffffff1663893d20e86000604051602001526040518163ffffffff167c0100000000000000000000000000000000000000000000000000000000028152600401602060405180830381600087803b151561249757600080fd5b6102c65a03f115156124a857600080fd5b5050506040518051905073ffffffffffffffffffffffffffffffffffffffff163373ffffffffffffffffffffffffffffffffffffffff161415156124eb57600080fd5b600854421015806125005750600b54600a5410155b151561250b57600080fd5b600073ffffffffffffffffffffffffffffffffffffffff166000809054906101000a900473ffffffffffffffffffffffffffffffffffffffff1673ffffffffffffffffffffffffffffffffffffffff161415151561256857600080fd5b6000809054906101000a900473ffffffffffffffffffffffffffffffffffffffff1673ffffffffffffffffffffffffffffffffffffffff1663a38d1748846000604051602001526040518263ffffffff167c0100000000000000000000000000000000000000000000000000000000028152600401808273ffffffffffffffffffffffffffffffffffffffff1673ffffffffffffffffffffffffffffffffffffffff168152602001915050602060405180830381600087803b151561262c57600080fd5b6102c65a03f1151561263d57600080fd5b505050604051805190509150600073ffffffffffffffffffffffffffffffffffffffff168373ffffffffffffffffffffffffffffffffffffffff161415151561268557600080fd5b60008211151561269457600080fd5b6000809054906101000a900473ffffffffffffffffffffffffffffffffffffffff1673ffffffffffffffffffffffffffffffffffffffff1663696c5639846000604051602001526040518263ffffffff167c0100000000000000000000000000000000000000000000000000000000028152600401808273ffffffffffffffffffffffffffffffffffffffff1673ffffffffffffffffffffffffffffffffffffffff168152602001915050602060405180830381600087803b151561275857600080fd5b6102c65a03f1151561276957600080fd5b5050506040518051905090506000809054906101000a900473ffffffffffffffffffffffffffffffffffffffff1673ffffffffffffffffffffffffffffffffffffffff1663ecb3dd288484846000604051602001526040518463ffffffff167c0100000000000000000000000000000000000000000000000000000000028152600401808473ffffffffffffffffffffffffffffffffffffffff1673ffffffffffffffffffffffffffffffffffffffff1681526020018381526020018281526020019350505050602060405180830381600087803b151561284957600080fd5b6102c65a03f1151561285a57600080fd5b5050506040518051905050600160009054906101000a900473ffffffffffffffffffffffffffffffffffffffff1673ffffffffffffffffffffffffffffffffffffffff166386ce028584836000604051602001526040518363ffffffff167c0100000000000000000000000000000000000000000000000000000000028152600401808373ffffffffffffffffffffffffffffffffffffffff1673ffffffffffffffffffffffffffffffffffffffff16815260200182815260200192505050602060405180830381600087803b151561293257600080fd5b6102c65a03f1151561294357600080fd5b50505060405180519050507f4acac65477a8c4c01fac952eb3dee1532445eb696dd114c3003c189656673eb3338483604051808473ffffffffffffffffffffffffffffffffffffffff1673ffffffffffffffffffffffffffffffffffffffff1681526020018373ffffffffffffffffffffffffffffffffffffffff1673ffffffffffffffffffffffffffffffffffffffff168152602001828152602001935050505060405180910390a1505050565b600360009054906101000a900473ffffffffffffffffffffffffffffffffffffffff1673ffffffffffffffffffffffffffffffffffffffff1663893d20e86000604051602001526040518163ffffffff167c0100000000000000000000000000000000000000000000000000000000028152600401602060405180830381600087803b1515612a8057600080fd5b6102c65a03f11515612a9157600080fd5b5050506040518051905073ffffffffffffffffffffffffffffffffffffffff163373ffffffffffffffffffffffffffffffffffffffff16141515612ad457600080fd5b6000600554141515612ae557600080fd5b6000600f60006101000a81548160ff021916908315150217905550565b600360009054906101000a900473ffffffffffffffffffffffffffffffffffffffff1673ffffffffffffffffffffffffffffffffffffffff1663893d20e86000604051602001526040518163ffffffff167c0100000000000000000000000000000000000000000000000000000000028152600401602060405180830381600087803b1515612b9057600080fd5b6102c65a03f11515612ba157600080fd5b5050506040518051905073ffffffffffffffffffffffffffffffffffffffff163373ffffffffffffffffffffffffffffffffffffffff16141515612be457600080fd5b6000600554141515612bf557600080fd5b8060098190555050565b600360009054906101000a900473ffffffffffffffffffffffffffffffffffffffff1673ffffffffffffffffffffffffffffffffffffffff1663893d20e86000604051602001526040518163ffffffff167c0100000000000000000000000000000000000000000000000000000000028152600401602060405180830381600087803b1515612c8d57600080fd5b6102c65a03f11515612c9e57600080fd5b5050506040518051905073ffffffffffffffffffffffffffffffffffffffff163373ffffffffffffffffffffffffffffffffffffffff16141515612ce157600080fd5b80600260006101000a81548173ffffffffffffffffffffffffffffffffffffffff021916908373ffffffffffffffffffffffffffffffffffffffff16021790555050565b600360009054906101000a900473ffffffffffffffffffffffffffffffffffffffff1673ffffffffffffffffffffffffffffffffffffffff1663893d20e86000604051602001526040518163ffffffff167c0100000000000000000000000000000000000000000000000000000000028152600401602060405180830381600087803b1515612db357600080fd5b6102c65a03f11515612dc457600080fd5b5050506040518051905073ffffffffffffffffffffffffffffffffffffffff163373ffffffffffffffffffffffffffffffffffffffff16141515612e0757600080fd5b6000600554141515612e1857600080fd5b60008810151515612e2857600080fd5b60008710151515612e3857600080fd5b600086111515612e4757600080fd5b60008573ffffffffffffffffffffffffffffffffffffffff1614151515612e6d57600080fd5b600084111515612e7c57600080fd5b60008373ffffffffffffffffffffffffffffffffffffffff1614151515612ea257600080fd5b610e1088024201600781905550610e108702600754016008819055508560098190555084600460006101000a81548173ffffffffffffffffffffffffffffffffffffffff021916908373ffffffffffffffffffffffffffffffffffffffff16021790555083600b8190555082600160006101000a81548173ffffffffffffffffffffffffffffffffffffffff021916908373ffffffffffffffffffffffffffffffffffffffff160217905550816000806101000a81548173ffffffffffffffffffffffffffffffffffffffff021916908373ffffffffffffffffffffffffffffffffffffffff16021790555080600260006101000a81548173ffffffffffffffffffffffffffffffffffffffff021916908373ffffffffffffffffffffffffffffffffffffffff1602179055505050505050505050565b600360009054906101000a900473ffffffffffffffffffffffffffffffffffffffff1673ffffffffffffffffffffffffffffffffffffffff1663893d20e86000604051602001526040518163ffffffff167c0100000000000000000000000000000000000000000000000000000000028152600401602060405180830381600087803b151561306757600080fd5b6102c65a03f1151561307857600080fd5b5050506040518051905073ffffffffffffffffffffffffffffffffffffffff163373ffffffffffffffffffffffffffffffffffffffff161415156130bb57600080fd5b60006005541415156130cc57600080fd5b80600c8190555050565b6000808214156130ea576009549050613102565b606482600954028115156130fa57fe5b046009540190505b919050565b60065481565b6008544210806131215750600b54600a5410155b151561312c57600080fd5b60008111151561313b57600080fd5b600073ffffffffffffffffffffffffffffffffffffffff166000809054906101000a900473ffffffffffffffffffffffffffffffffffffffff1673ffffffffffffffffffffffffffffffffffffffff161415151561319857600080fd5b6131ad600d54826136d290919063ffffffff16565b6000809054906101000a900473ffffffffffffffffffffffffffffffffffffffff1673ffffffffffffffffffffffffffffffffffffffff1663a38d1748336000604051602001526040518263ffffffff167c0100000000000000000000000000000000000000000000000000000000028152600401808273ffffffffffffffffffffffffffffffffffffffff1673ffffffffffffffffffffffffffffffffffffffff168152602001915050602060405180830381600087803b151561327157600080fd5b6102c65a03f1151561328257600080fd5b505050604051805190501015151561329957600080fd5b6000809054906101000a900473ffffffffffffffffffffffffffffffffffffffff1673ffffffffffffffffffffffffffffffffffffffff1663ecb3dd2833600d5484026132e660146130d6565b85026000604051602001526040518463ffffffff167c0100000000000000000000000000000000000000000000000000000000028152600401808473ffffffffffffffffffffffffffffffffffffffff1673ffffffffffffffffffffffffffffffffffffffff1681526020018381526020018281526020019350505050602060405180830381600087803b151561337c57600080fd5b6102c65a03f1151561338d57600080fd5b50505060405180519050506133b1600d548202600a5461363890919063ffffffff16565b600a819055503373ffffffffffffffffffffffffffffffffffffffff166108fc600d5483029081150290604051600060405180830381858888f1935050505015156133fb57600080fd5b50565b600854421015806134135750600b54600a5410155b151561341e57600080fd5b600360009054906101000a900473ffffffffffffffffffffffffffffffffffffffff1673ffffffffffffffffffffffffffffffffffffffff1663893d20e86000604051602001526040518163ffffffff167c0100000000000000000000000000000000000000000000000000000000028152600401602060405180830381600087803b15156134ac57600080fd5b6102c65a03f115156134bd57600080fd5b5050506040518051905073ffffffffffffffffffffffffffffffffffffffff163373ffffffffffffffffffffffffffffffffffffffff1614151561350057600080fd5b600060055414151561351157600080fd5b600073ffffffffffffffffffffffffffffffffffffffff16600460009054906101000a900473ffffffffffffffffffffffffffffffffffffffff1673ffffffffffffffffffffffffffffffffffffffff161415151561356f57600080fd5b6000600a54111561361857600460009054906101000a900473ffffffffffffffffffffffffffffffffffffffff1673ffffffffffffffffffffffffffffffffffffffff166108fc600a549081150290604051600060405180830381858888f1935050505015156135de57600080fd5b7f3db517c2306ba26eb5c8671f19d2e03743d8654a1bdfce0e1bc46492dca8091e600a546040518082815260200191505060405180910390a15b565b600080828401905083811015151561362e57fe5b8091505092915050565b600082821115151561364657fe5b818303905092915050565b6000806000806000429350600754841015801561367057506008548411155b9250600b5461368a87600a5461361a90919063ffffffff16565b1115915061369787613705565b90508180156136a35750825b80156136bc5750600f60009054906101000a900460ff16155b80156136c6575080155b94505050505092915050565b600080828402905060008414806136f357508284828115156136f057fe5b04145b15156136fb57fe5b8091505092915050565b600080823b9050600081119150509190505600a165627a7a723058203a146a84ea1809535fb5c7ae4d6af9f82898f1d2ebbb61f0f2ec0adb01d5eb9c0029",
  "source": "pragma solidity ^0.4.17;\r\n\r\n/// @author Stefan Ionescu - <stefanionescu@protonmail.com>\r\n\r\nimport \"contracts/Owned.sol\";\r\nimport \"contracts/interfaces/TokenControllerInterface.sol\";\r\nimport \"contracts/interfaces/MulaCrowdsaleInterface.sol\";\r\nimport \"contracts/storage/CrowdsaleStorage.sol\";\r\nimport \"contracts/libraries/SafeMath.sol\";\r\nimport \"contracts/interfaces/DateTimeAPI.sol\";\r\n\r\ncontract MulaCrowdsale is MulaCrowdsaleInterface {\r\n\r\n    using SafeMath for uint256;\r\n\r\n    //The storage for this crowdsale; we keep storage and logic separated in case we want to\r\n    //upgrade this contract because of bugs, attacks etc\r\n    CrowdsaleStorage internal _storage;\r\n\r\n    //HYP token Controller\r\n    TokenControllerInterface internal token;\r\n\r\n    //Date time functions\r\n    DateTimeAPI dateTime;\r\n\r\n    //Contract which dictates who owns this campaign\r\n    Owned private owned;\r\n\r\n    //address where funds are collected\r\n    address internal wallet;\r\n\r\n    //for escape hatch; if 0, all functions can be used; if 1, only some functions can be used\r\n    uint256 public blockAttack = 0;\r\n\r\n    //maximum gas price for contribution transactions\r\n    uint256 public MAX_GAS_PRICE = 9000000000000000000;\r\n\r\n    //start and end times where investments are allowed (both inclusive)\r\n    uint256 public startTime;\r\n    uint256 public endTime;\r\n\r\n    //how many token units a buyer gets per wei\r\n    uint256 public rate;\r\n\r\n    //amount of raised money in wei\r\n    uint256 public weiRaised;\r\n\r\n    //hard cap, campaign ends after reached\r\n    uint256 public weiCap;\r\n\r\n    //how much Ether an investor can actually invest in the crowdsale; if 0, any investor can send as much Ether as they want\r\n    uint256 public investorLimit = 0;\r\n\r\n    uint256 private oneEther = 10 ** 18;\r\n\r\n    mapping(uint256 => uint256) internal activeDays;\r\n\r\n    //allows for owner to pause the campaign if needed\r\n    bool public paused;\r\n\r\n    modifier afterDeadline() {\r\n\r\n        require(now >= endTime || weiRaised >= weiCap);\r\n         _;\r\n\r\n    }\r\n\r\n    //Used when we want to block the majority of functions from being called\r\n    modifier hatch() {\r\n\r\n        require(blockAttack == 0);\r\n        _;\r\n\r\n    }\r\n\r\n    //Check if we paused campaign\r\n    modifier notPaused() {\r\n        require(!paused);\r\n        _;\r\n    }\r\n\r\n    //Check that campaign didn't end in order to allow refunds\r\n    modifier refundCondition() {\r\n\r\n        require(now < endTime || weiRaised >= weiCap);\r\n        _;\r\n\r\n    }\r\n\r\n    //verifies that gas price is below max gas price (prevents \"cutting in line\")\r\n    modifier validGasPrice() {\r\n        require(tx.gasprice <= MAX_GAS_PRICE);\r\n        _;\r\n    }\r\n\r\n    ///@dev `owner` is the only address that can call a function with this\r\n    ///modifier\r\n    modifier onlyOwner() {\r\n        require(msg.sender == owned.getOwner());\r\n        _;\r\n    }\r\n\r\n    function MulaCrowdsale(address _owned) {\r\n        paused = false;\r\n        owned = Owned(_owned);\r\n    }\r\n\r\n    function changeOwned(address _owned) public onlyOwner {\r\n\r\n        owned = Owned(_owned);\r\n\r\n    }\r\n\r\n    function changeDateTimeAPI(address dateAPI) public onlyOwner {\r\n\r\n        dateTime = DateTimeAPI(dateAPI);\r\n\r\n    }\r\n\r\n    function initialize(uint256 hoursUntilStart, uint256 hoursUntilEnd, uint256 _rate, address _wallet, uint256 _cap, address _token, address _storageAddress, address dateTimeAddr) public onlyOwner hatch {\r\n\r\n        require(hoursUntilStart >= 0);\r\n        require(hoursUntilEnd >= 0);\r\n        require(_rate > 0);\r\n        require(_wallet != 0x0);\r\n        require(_cap > 0);\r\n        require(_token != 0x0);\r\n\r\n        startTime = now + hoursUntilStart * 1 hours;\r\n        endTime = startTime + hoursUntilEnd * 1 hours;\r\n        rate = _rate;\r\n        wallet = _wallet;\r\n        weiCap = _cap;\r\n        token = TokenControllerInterface(_token);\r\n        _storage = CrowdsaleStorage(_storageAddress);\r\n\r\n        dateTime = DateTimeAPI(dateTimeAddr);\r\n\r\n    }\r\n\r\n    function getSaleStart() constant returns (uint256, uint256, uint256) {\r\n\r\n        return (dateTime.getYear(startTime), dateTime.getMonth(startTime), dateTime.getDay(startTime));\r\n\r\n    }\r\n\r\n    function addDaysToArray() public returns (uint256) {\r\n\r\n        require(msg.sender == owned.getOwner());\r\n\r\n        uint256 currentTime = startTime;\r\n        uint256 length = 0;\r\n        uint256 mappingKey = 0;\r\n\r\n        do {\r\n\r\n            mappingKey = dateTime.getYear(currentTime);\r\n\r\n            uint256 month = dateTime.getMonth(currentTime);\r\n\r\n            mappingKey = mappingKey.mul(100);\r\n            \r\n            mappingKey = mappingKey.add(month);\r\n\r\n            uint256 day = dateTime.getDay(currentTime);\r\n\r\n            mappingKey = mappingKey.mul(100);\r\n            \r\n            mappingKey = mappingKey.add(day);\r\n\r\n            activeDays[mappingKey] = 20 - length;\r\n\r\n            mappingKey = 0;\r\n\r\n            length = length.add(1);\r\n\r\n            currentTime = currentTime.add(24 hours);\r\n\r\n        } while (currentTime <= endTime);\r\n\r\n        return length;\r\n\r\n    }\r\n\r\n    function changeCrowdsaleStorage(address _storageAddress) public onlyOwner hatch {\r\n\r\n        _storage = CrowdsaleStorage(_storageAddress);\r\n\r\n    }\r\n\r\n    // Pauses the contribution if there is any issue\r\n    function pauseContribution() public onlyOwner {\r\n        paused = true;\r\n    }\r\n\r\n    // Resumes the contribution\r\n    function resumeContribution() public onlyOwner hatch {\r\n        paused = false;\r\n    }\r\n\r\n    function switchTokenController(address _token) public onlyOwner hatch {\r\n\r\n        token = TokenControllerInterface(_token);\r\n\r\n    }\r\n\r\n    function switchWallet(address _wallet) public onlyOwner hatch {\r\n\r\n        wallet = _wallet;\r\n\r\n    }\r\n\r\n    // This will not give correct results; investors need to use the official function because\r\n    // here we can't compute values properly\r\n    function () payable {\r\n        buyTokens();\r\n    }\r\n\r\n    function limitPerInvestor(uint256 limit) public onlyOwner hatch {\r\n\r\n        investorLimit = limit;\r\n\r\n    }\r\n\r\n    function changeBaseRate(uint256 baseRate) public onlyOwner hatch {\r\n\r\n        rate = baseRate;\r\n\r\n    }\r\n\r\n    function changeMaximumGasLimit(uint256 gasLimit) public onlyOwner hatch {\r\n\r\n        MAX_GAS_PRICE = gasLimit;\r\n\r\n    }\r\n\r\n    function computeAllowedInvestment(uint256 investment, address investor) public constant returns (uint256) {\r\n\r\n        if (investorLimit == 0) {\r\n\r\n            return investment;\r\n\r\n        }\r\n\r\n        uint256 allowed = investment;\r\n\r\n        /**\r\n        * See if the investor's sum gets past the limit, and if so,\r\n        * set the investor's total investment to max\r\n        */\r\n\r\n        uint256 storageWei = _storage.getInvestorWei(investor);\r\n\r\n        require(storageWei < investorLimit);\r\n\r\n        if (allowed.add(storageWei) > investorLimit) {\r\n\r\n            allowed = investorLimit.sub(storageWei);\r\n\r\n\r\n        }\r\n\r\n        return allowed;\r\n\r\n    }\r\n\r\n    function checkIfBonusDay(uint256 _day, uint256 _month, uint256 _year) public constant returns (uint256) {\r\n\r\n        uint256 key = _year.mul(100).add(_month).mul(100).add(_day);\r\n\r\n        if (activeDays[key] != 0) {\r\n\r\n            return activeDays[key];\r\n\r\n        } else {\r\n\r\n            return 0;\r\n\r\n        }\r\n                \r\n    }\r\n\r\n    function buyTokens() public payable validGasPrice hatch {\r\n\r\n        require(msg.value > 0);\r\n        require(rate != 0);\r\n        require(_storage != CrowdsaleStorage(0));\r\n\r\n        uint256 allowed = computeAllowedInvestment(msg.value, msg.sender);\r\n\r\n        //Make necessary checks: the campaign didn't end, the investor is not a contract etc\r\n\r\n        if (allowed > weiCap || weiRaised.add(allowed) > weiCap) {\r\n\r\n            allowed = weiCap.sub(weiRaised);\r\n\r\n        }\r\n\r\n        require(allowed > 0);\r\n\r\n        require(validPurchase(msg.sender, allowed));\r\n\r\n        //Calculate token amount to be created\r\n        uint256 tokens = tokensPerInvestment(msg.value);\r\n\r\n        //Add the investment to wei raised\r\n        weiRaised = weiRaised.add(allowed);\r\n\r\n        //Update investor's info\r\n        _storage.addInvestment(msg.sender, allowed, tokens);\r\n\r\n        //Broadcast event\r\n        TokenPurchase(msg.sender, allowed, tokens);\r\n\r\n        tokens = 0;\r\n\r\n        //Send back ether if the investor sent above the limit\r\n        if (msg.value != allowed) {\r\n\r\n            msg.sender.transfer(msg.value.sub(allowed));\r\n\r\n        }\r\n\r\n    }\r\n\r\n    function changeBonusForDate(uint256 _day, uint256 _month, uint256 _year, uint256 newBonus) public onlyOwner {\r\n\r\n        uint256 composedTimestamp = _year.mul(100).add(_month).mul(100).add(_day);\r\n\r\n        activeDays[composedTimestamp] = newBonus;\r\n\r\n    }\r\n\r\n    function tokensPerInvestment(uint256 _investment) public constant returns (uint256) {\r\n\r\n        uint256 _bonus = checkIfBonusDay(dateTime.getDay(now), dateTime.getMonth(now), dateTime.getYear(now));\r\n\r\n        //Compute the bonus for each investment\r\n        uint256 bonusRate = getBonusRate(_bonus);\r\n\r\n        //Calculate token amount to be created\r\n        uint256 tokens = (bonusRate * _investment) / oneEther;\r\n\r\n        return tokens;\r\n\r\n    }\r\n\r\n    function getCurrentTimestamp() public constant returns (uint256) {\r\n\r\n        return now;\r\n\r\n    }\r\n\r\n    function getBonusRate(uint256 bonus) public constant returns (uint256) {\r\n\r\n        if (bonus == 0) {\r\n\r\n            return rate;\r\n\r\n        } else {\r\n\r\n            return rate + (rate * bonus / 100);\r\n\r\n        }\r\n\r\n    }\r\n\r\n    //We always tax the withdrawal with baseRate + 20% bonus to be withdrawn from token amount\r\n\r\n    function refundInvestment(uint256 etherAmount) public refundCondition {\r\n\r\n        require(etherAmount > 0);\r\n        require(_storage != CrowdsaleStorage(0));\r\n        require(_storage.getInvestorWei(msg.sender) >= etherAmount.mul(oneEther));\r\n\r\n        _storage.withdrawInvestment(msg.sender, etherAmount * oneEther, etherAmount * getBonusRate(20));\r\n\r\n        weiRaised = weiRaised.sub(etherAmount * oneEther);\r\n\r\n        msg.sender.transfer(etherAmount * oneEther);\r\n\r\n    }\r\n\r\n    function safeWithdrawal() public afterDeadline onlyOwner hatch {\r\n\r\n        require(wallet != address(0));\r\n\r\n        if (weiRaised > 0) {\r\n\r\n            wallet.transfer(weiRaised);\r\n\r\n            TransferredToWallet(weiRaised);\r\n\r\n        }\r\n\r\n    }\r\n\r\n    function distributeTokens(address investor) public onlyOwner afterDeadline {\r\n\r\n        require(_storage != CrowdsaleStorage(0));\r\n\r\n        uint256 investorWei = _storage.getInvestorWei(investor);\r\n\r\n        require(investor != address(0));\r\n        require(investorWei > 0);\r\n\r\n        uint256 tokensToSend = _storage.getInvestorTokens(investor);\r\n\r\n        _storage.withdrawInvestment(investor, investorWei, tokensToSend);\r\n\r\n        token.allocateTokens(investor, tokensToSend);\r\n\r\n        AllocateTokens(msg.sender, investor, tokensToSend);\r\n\r\n    }\r\n\r\n    function claimTokens() public afterDeadline {\r\n\r\n        require(_storage != CrowdsaleStorage(0));\r\n\r\n        uint256 investorWei = _storage.getInvestorWei(msg.sender);\r\n\r\n        require(investorWei > 0);\r\n\r\n        uint256 tokensToSend = _storage.getInvestorTokens(msg.sender);\r\n\r\n        _storage.withdrawInvestment(msg.sender, investorWei, tokensToSend);\r\n\r\n        token.allocateTokens(msg.sender, tokensToSend);\r\n\r\n        AllocateTokens(msg.sender, msg.sender, tokensToSend);\r\n\r\n    }\r\n\r\n    function validPurchase(address investor, uint256 allowed) internal returns (bool) {\r\n        uint256 current = now;\r\n        bool withinPeriod = current >= startTime && current <= endTime;\r\n        bool withinCap = weiRaised.add(allowed) <= weiCap;\r\n        bool investorIsContract = isContract(investor);\r\n        return withinCap && withinPeriod && !paused && !investorIsContract;\r\n    }\r\n\r\n    function isContract(address _addr) internal constant returns (bool is_contract) {\r\n\r\n      uint length;\r\n\r\n      assembly {\r\n            //retrieve the size of the code on target address, this needs assembly\r\n            length := extcodesize(_addr)\r\n      }\r\n\r\n      return (length > 0);\r\n\r\n    }\r\n\r\n    function escapeHatch() public onlyOwner {\r\n\r\n        if (blockAttack == 0) {\r\n\r\n            blockAttack = 1;\r\n\r\n        } else {\r\n\r\n            blockAttack = 0;\r\n\r\n        }\r\n\r\n    }\r\n\r\n    function investorInterfaceData() public constant returns (uint256, uint256, uint256, uint256) {\r\n\r\n        return (startTime, endTime, this.balance, weiCap);\r\n\r\n    }\r\n\r\n}\r\n",
  "sourcePath": "D:\\EthereumProjects\\work\\mula\\contracts\\MulaCrowdsale.sol",
  "compiler": {
    "name": "solc",
    "version": "0.4.18+commit.9cf6e910.Emscripten.clang"
  },
  "schemaVersion": "1.0.1",
  "updatedAt": "2018-04-10T12:42:43.558Z"
}