{
  "contractName": "MulaToken",
  "abi": [
    {
      "constant": false,
      "inputs": [
        {
          "name": "_amount",
          "type": "uint256"
        }
      ],
      "name": "increaseCirculation",
      "outputs": [],
      "payable": false,
      "stateMutability": "nonpayable",
      "type": "function"
    },
    {
      "constant": true,
      "inputs": [],
      "name": "name",
      "outputs": [
        {
          "name": "",
          "type": "string"
        }
      ],
      "payable": false,
      "stateMutability": "view",
      "type": "function"
    },
    {
      "constant": true,
      "inputs": [],
      "name": "getSymbol",
      "outputs": [
        {
          "name": "",
          "type": "string"
        }
      ],
      "payable": false,
      "stateMutability": "view",
      "type": "function"
    },
    {
      "constant": false,
      "inputs": [],
      "name": "escapeHatch",
      "outputs": [],
      "payable": false,
      "stateMutability": "nonpayable",
      "type": "function"
    },
    {
      "constant": true,
      "inputs": [],
      "name": "getName",
      "outputs": [
        {
          "name": "",
          "type": "string"
        }
      ],
      "payable": false,
      "stateMutability": "view",
      "type": "function"
    },
    {
      "constant": true,
      "inputs": [],
      "name": "totalSupply",
      "outputs": [
        {
          "name": "",
          "type": "uint256"
        }
      ],
      "payable": false,
      "stateMutability": "view",
      "type": "function"
    },
    {
      "constant": true,
      "inputs": [],
      "name": "decimals",
      "outputs": [
        {
          "name": "",
          "type": "uint256"
        }
      ],
      "payable": false,
      "stateMutability": "view",
      "type": "function"
    },
    {
      "constant": true,
      "inputs": [],
      "name": "currentlyInCirculation",
      "outputs": [
        {
          "name": "",
          "type": "uint256"
        }
      ],
      "payable": false,
      "stateMutability": "view",
      "type": "function"
    },
    {
      "constant": false,
      "inputs": [
        {
          "name": "_controller",
          "type": "address"
        }
      ],
      "name": "changeController",
      "outputs": [],
      "payable": false,
      "stateMutability": "nonpayable",
      "type": "function"
    },
    {
      "constant": false,
      "inputs": [
        {
          "name": "_storageAddr",
          "type": "address"
        },
        {
          "name": "_controller",
          "type": "address"
        }
      ],
      "name": "initialize",
      "outputs": [],
      "payable": false,
      "stateMutability": "nonpayable",
      "type": "function"
    },
    {
      "constant": false,
      "inputs": [
        {
          "name": "_upgradeAddr",
          "type": "address"
        }
      ],
      "name": "allowUpgrade",
      "outputs": [],
      "payable": false,
      "stateMutability": "nonpayable",
      "type": "function"
    },
    {
      "constant": true,
      "inputs": [
        {
          "name": "_owner",
          "type": "address"
        }
      ],
      "name": "balanceOf",
      "outputs": [
        {
          "name": "balance",
          "type": "uint256"
        }
      ],
      "payable": false,
      "stateMutability": "view",
      "type": "function"
    },
    {
      "constant": true,
      "inputs": [],
      "name": "symbol",
      "outputs": [
        {
          "name": "",
          "type": "string"
        }
      ],
      "payable": false,
      "stateMutability": "view",
      "type": "function"
    },
    {
      "constant": false,
      "inputs": [
        {
          "name": "_owned",
          "type": "address"
        }
      ],
      "name": "changeOwned",
      "outputs": [],
      "payable": false,
      "stateMutability": "nonpayable",
      "type": "function"
    },
    {
      "constant": false,
      "inputs": [
        {
          "name": "_to",
          "type": "address"
        },
        {
          "name": "_amount",
          "type": "uint256"
        }
      ],
      "name": "addToBalance",
      "outputs": [],
      "payable": false,
      "stateMutability": "nonpayable",
      "type": "function"
    },
    {
      "constant": false,
      "inputs": [
        {
          "name": "_to",
          "type": "address"
        },
        {
          "name": "_value",
          "type": "uint256"
        },
        {
          "name": "_data",
          "type": "bytes"
        }
      ],
      "name": "transfer",
      "outputs": [
        {
          "name": "",
          "type": "bool"
        }
      ],
      "payable": false,
      "stateMutability": "nonpayable",
      "type": "function"
    },
    {
      "constant": false,
      "inputs": [
        {
          "name": "_from",
          "type": "address"
        },
        {
          "name": "_value",
          "type": "uint256"
        },
        {
          "name": "_data",
          "type": "bytes"
        }
      ],
      "name": "tokenFallback",
      "outputs": [],
      "payable": false,
      "stateMutability": "nonpayable",
      "type": "function"
    },
    {
      "constant": true,
      "inputs": [],
      "name": "getTotalSupply",
      "outputs": [
        {
          "name": "",
          "type": "uint256"
        }
      ],
      "payable": false,
      "stateMutability": "view",
      "type": "function"
    },
    {
      "constant": true,
      "inputs": [],
      "name": "getDecimals",
      "outputs": [
        {
          "name": "",
          "type": "uint256"
        }
      ],
      "payable": false,
      "stateMutability": "view",
      "type": "function"
    },
    {
      "constant": false,
      "inputs": [
        {
          "name": "_storageAddr",
          "type": "address"
        }
      ],
      "name": "changeMUTStorage",
      "outputs": [],
      "payable": false,
      "stateMutability": "nonpayable",
      "type": "function"
    },
    {
      "inputs": [
        {
          "name": "_owned",
          "type": "address"
        },
        {
          "name": "mintedTokens",
          "type": "uint256"
        },
        {
          "name": "_name",
          "type": "string"
        },
        {
          "name": "_symbol",
          "type": "string"
        },
        {
          "name": "_decimals",
          "type": "uint256"
        }
      ],
      "payable": false,
      "stateMutability": "nonpayable",
      "type": "constructor"
    },
    {
      "anonymous": false,
      "inputs": [
        {
          "indexed": false,
          "name": "_data",
          "type": "bytes"
        }
      ],
      "name": "FallbackData",
      "type": "event"
    },
    {
      "anonymous": false,
      "inputs": [
        {
          "indexed": false,
          "name": "from",
          "type": "address"
        },
        {
          "indexed": false,
          "name": "to",
          "type": "address"
        },
        {
          "indexed": false,
          "name": "value",
          "type": "uint256"
        },
        {
          "indexed": false,
          "name": "data",
          "type": "bytes"
        }
      ],
      "name": "Transfer",
      "type": "event"
    },
    {
      "anonymous": false,
      "inputs": [
        {
          "indexed": false,
          "name": "who",
          "type": "address"
        },
        {
          "indexed": false,
          "name": "amountTransferred",
          "type": "uint256"
        }
      ],
      "name": "Upgraded",
      "type": "event"
    }
  ],
  "bytecode": "0x60606040526040805190810160405280600981526020017f4d554c4120434f494e0000000000000000000000000000000000000000000000815250600290805190602001906200005192919062000190565b506040805190810160405280600381526020017f4d55540000000000000000000000000000000000000000000000000000000000815250600390805190602001906200009f92919062000190565b5060126004556000600555600060065560006007553415620000c057600080fd5b604051620023763803806200237683398101604052808051906020019091908051906020019091908051820191906020018051820191906020018051906020019091905050846000806101000a81548173ffffffffffffffffffffffffffffffffffffffff021916908373ffffffffffffffffffffffffffffffffffffffff1602179055508360058190555082600290805190602001906200016492919062000190565b5081600390805190602001906200017d92919062000190565b508060048190555050505050506200023f565b828054600181600116156101000203166002900490600052602060002090601f016020900481019282601f10620001d357805160ff191683800117855562000204565b8280016001018555821562000204579182015b8281111562000203578251825591602001919060010190620001e6565b5b50905062000213919062000217565b5090565b6200023c91905b80821115620002385760008160009055506001016200021e565b5090565b90565b612127806200024f6000396000f300606060405260043610610112576000357c0100000000000000000000000000000000000000000000000000000000900463ffffffff168063052598911461011757806306fdde031461013a57806315070401146101c85780631554611f1461025657806317d7de7c1461026b57806318160ddd146102f9578063313ce56714610322578063327cc87c1461034b5780633cebb82314610374578063485cc955146103ad578063551b02571461040557806370a082311461043e57806395d89b411461048b57806397ee470014610519578063b08079a614610552578063be45fd6214610594578063c0ee0b8a14610631578063c4e41b22146106b6578063f0141d84146106df578063f1f2294814610708575b600080fd5b341561012257600080fd5b6101386004808035906020019091905050610741565b005b341561014557600080fd5b61014d6108ce565b6040518080602001828103825283818151815260200191508051906020019080838360005b8381101561018d578082015181840152602081019050610172565b50505050905090810190601f1680156101ba5780820380516001836020036101000a031916815260200191505b509250505060405180910390f35b34156101d357600080fd5b6101db61096c565b6040518080602001828103825283818151815260200191508051906020019080838360005b8381101561021b578082015181840152602081019050610200565b50505050905090810190601f1680156102485780820380516001836020036101000a031916815260200191505b509250505060405180910390f35b341561026157600080fd5b610269610a14565b005b341561027657600080fd5b61027e610b18565b6040518080602001828103825283818151815260200191508051906020019080838360005b838110156102be5780820151818401526020810190506102a3565b50505050905090810190601f1680156102eb5780820380516001836020036101000a031916815260200191505b509250505060405180910390f35b341561030457600080fd5b61030c610bc0565b6040518082815260200191505060405180910390f35b341561032d57600080fd5b610335610bc6565b6040518082815260200191505060405180910390f35b341561035657600080fd5b61035e610bcc565b6040518082815260200191505060405180910390f35b341561037f57600080fd5b6103ab600480803573ffffffffffffffffffffffffffffffffffffffff16906020019091905050610bd2565b005b34156103b857600080fd5b610403600480803573ffffffffffffffffffffffffffffffffffffffff1690602001909190803573ffffffffffffffffffffffffffffffffffffffff16906020019091905050610cf7565b005b341561041057600080fd5b61043c600480803573ffffffffffffffffffffffffffffffffffffffff16906020019091905050610e5e565b005b341561044957600080fd5b610475600480803573ffffffffffffffffffffffffffffffffffffffff16906020019091905050610f83565b6040518082815260200191505060405180910390f35b341561049657600080fd5b61049e6110c9565b6040518080602001828103825283818151815260200191508051906020019080838360005b838110156104de5780820151818401526020810190506104c3565b50505050905090810190601f16801561050b5780820380516001836020036101000a031916815260200191505b509250505060405180910390f35b341561052457600080fd5b610550600480803573ffffffffffffffffffffffffffffffffffffffff16906020019091905050611167565b005b341561055d57600080fd5b610592600480803573ffffffffffffffffffffffffffffffffffffffff1690602001909190803590602001909190505061128b565b005b341561059f57600080fd5b610617600480803573ffffffffffffffffffffffffffffffffffffffff1690602001909190803590602001909190803590602001908201803590602001908080601f0160208091040260200160405190810160405280939291908181526020018383808284378201915050505050509190505061150f565b604051808215151515815260200191505060405180910390f35b341561063c57600080fd5b6106b4600480803573ffffffffffffffffffffffffffffffffffffffff1690602001909190803590602001909190803590602001908201803590602001908080601f016020809104026020016040519081016040528093929190818152602001838380828437820191505050505050919050506119dd565b005b34156106c157600080fd5b6106c9611c2b565b6040518082815260200191505060405180910390f35b34156106ea57600080fd5b6106f2611c35565b6040518082815260200191505060405180910390f35b341561071357600080fd5b61073f600480803573ffffffffffffffffffffffffffffffffffffffff16906020019091905050611c3f565b005b600060075414151561075257600080fd5b6000809054906101000a900473ffffffffffffffffffffffffffffffffffffffff1673ffffffffffffffffffffffffffffffffffffffff1663893d20e86000604051602001526040518163ffffffff167c0100000000000000000000000000000000000000000000000000000000028152600401602060405180830381600087803b15156107df57600080fd5b6102c65a03f115156107f057600080fd5b5050506040518051905073ffffffffffffffffffffffffffffffffffffffff163373ffffffffffffffffffffffffffffffffffffffff16148061088057503373ffffffffffffffffffffffffffffffffffffffff16600860009054906101000a900473ffffffffffffffffffffffffffffffffffffffff1673ffffffffffffffffffffffffffffffffffffffff16145b151561088b57600080fd5b6005546108a382600654611d6490919063ffffffff16565b111515156108b057600080fd5b6108c581600654611d6490919063ffffffff16565b60068190555050565b60028054600181600116156101000203166002900480601f0160208091040260200160405190810160405280929190818152602001828054600181600116156101000203166002900480156109645780601f1061093957610100808354040283529160200191610964565b820191906000526020600020905b81548152906001019060200180831161094757829003601f168201915b505050505081565b6109746120e7565b60038054600181600116156101000203166002900480601f016020809104026020016040519081016040528092919081815260200182805460018160011615610100020316600290048015610a0a5780601f106109df57610100808354040283529160200191610a0a565b820191906000526020600020905b8154815290600101906020018083116109ed57829003601f168201915b5050505050905090565b6000809054906101000a900473ffffffffffffffffffffffffffffffffffffffff1673ffffffffffffffffffffffffffffffffffffffff1663893d20e86000604051602001526040518163ffffffff167c0100000000000000000000000000000000000000000000000000000000028152600401602060405180830381600087803b1515610aa157600080fd5b6102c65a03f11515610ab257600080fd5b5050506040518051905073ffffffffffffffffffffffffffffffffffffffff163373ffffffffffffffffffffffffffffffffffffffff16141515610af557600080fd5b60006007541415610b0d576001600781905550610b16565b60006007819055505b565b610b206120e7565b60028054600181600116156101000203166002900480601f016020809104026020016040519081016040528092919081815260200182805460018160011615610100020316600290048015610bb65780601f10610b8b57610100808354040283529160200191610bb6565b820191906000526020600020905b815481529060010190602001808311610b9957829003601f168201915b5050505050905090565b60055481565b60045481565b60065481565b6000809054906101000a900473ffffffffffffffffffffffffffffffffffffffff1673ffffffffffffffffffffffffffffffffffffffff1663893d20e86000604051602001526040518163ffffffff167c0100000000000000000000000000000000000000000000000000000000028152600401602060405180830381600087803b1515610c5f57600080fd5b6102c65a03f11515610c7057600080fd5b5050506040518051905073ffffffffffffffffffffffffffffffffffffffff163373ffffffffffffffffffffffffffffffffffffffff16141515610cb357600080fd5b80600860006101000a81548173ffffffffffffffffffffffffffffffffffffffff021916908373ffffffffffffffffffffffffffffffffffffffff16021790555050565b6000809054906101000a900473ffffffffffffffffffffffffffffffffffffffff1673ffffffffffffffffffffffffffffffffffffffff1663893d20e86000604051602001526040518163ffffffff167c0100000000000000000000000000000000000000000000000000000000028152600401602060405180830381600087803b1515610d8457600080fd5b6102c65a03f11515610d9557600080fd5b5050506040518051905073ffffffffffffffffffffffffffffffffffffffff163373ffffffffffffffffffffffffffffffffffffffff16141515610dd857600080fd5b81600160006101000a81548173ffffffffffffffffffffffffffffffffffffffff021916908373ffffffffffffffffffffffffffffffffffffffff16021790555080600860006101000a81548173ffffffffffffffffffffffffffffffffffffffff021916908373ffffffffffffffffffffffffffffffffffffffff1602179055505050565b6000809054906101000a900473ffffffffffffffffffffffffffffffffffffffff1673ffffffffffffffffffffffffffffffffffffffff1663893d20e86000604051602001526040518163ffffffff167c0100000000000000000000000000000000000000000000000000000000028152600401602060405180830381600087803b1515610eeb57600080fd5b6102c65a03f11515610efc57600080fd5b5050506040518051905073ffffffffffffffffffffffffffffffffffffffff163373ffffffffffffffffffffffffffffffffffffffff16141515610f3f57600080fd5b80600a60006101000a81548173ffffffffffffffffffffffffffffffffffffffff021916908373ffffffffffffffffffffffffffffffffffffffff16021790555050565b60008073ffffffffffffffffffffffffffffffffffffffff16600160009054906101000a900473ffffffffffffffffffffffffffffffffffffffff1673ffffffffffffffffffffffffffffffffffffffff1614151515610fe257600080fd5b600160009054906101000a900473ffffffffffffffffffffffffffffffffffffffff1673ffffffffffffffffffffffffffffffffffffffff1663f8b2cb4f836000604051602001526040518263ffffffff167c0100000000000000000000000000000000000000000000000000000000028152600401808273ffffffffffffffffffffffffffffffffffffffff1673ffffffffffffffffffffffffffffffffffffffff168152602001915050602060405180830381600087803b15156110a757600080fd5b6102c65a03f115156110b857600080fd5b505050604051805190509050919050565b60038054600181600116156101000203166002900480601f01602080910402602001604051908101604052809291908181526020018280546001816001161561010002031660029004801561115f5780601f106111345761010080835404028352916020019161115f565b820191906000526020600020905b81548152906001019060200180831161114257829003601f168201915b505050505081565b6000809054906101000a900473ffffffffffffffffffffffffffffffffffffffff1673ffffffffffffffffffffffffffffffffffffffff1663893d20e86000604051602001526040518163ffffffff167c0100000000000000000000000000000000000000000000000000000000028152600401602060405180830381600087803b15156111f457600080fd5b6102c65a03f1151561120557600080fd5b5050506040518051905073ffffffffffffffffffffffffffffffffffffffff163373ffffffffffffffffffffffffffffffffffffffff1614151561124857600080fd5b806000806101000a81548173ffffffffffffffffffffffffffffffffffffffff021916908373ffffffffffffffffffffffffffffffffffffffff16021790555050565b600060075414151561129c57600080fd5b6000809054906101000a900473ffffffffffffffffffffffffffffffffffffffff1673ffffffffffffffffffffffffffffffffffffffff1663893d20e86000604051602001526040518163ffffffff167c0100000000000000000000000000000000000000000000000000000000028152600401602060405180830381600087803b151561132957600080fd5b6102c65a03f1151561133a57600080fd5b5050506040518051905073ffffffffffffffffffffffffffffffffffffffff163373ffffffffffffffffffffffffffffffffffffffff1614806113ca57503373ffffffffffffffffffffffffffffffffffffffff16600860009054906101000a900473ffffffffffffffffffffffffffffffffffffffff1673ffffffffffffffffffffffffffffffffffffffff16145b15156113d557600080fd5b600073ffffffffffffffffffffffffffffffffffffffff16600160009054906101000a900473ffffffffffffffffffffffffffffffffffffffff1673ffffffffffffffffffffffffffffffffffffffff161415151561143357600080fd5b600160009054906101000a900473ffffffffffffffffffffffffffffffffffffffff1673ffffffffffffffffffffffffffffffffffffffff1663fb965b0383836040518363ffffffff167c0100000000000000000000000000000000000000000000000000000000028152600401808373ffffffffffffffffffffffffffffffffffffffff1673ffffffffffffffffffffffffffffffffffffffff16815260200182815260200192505050600060405180830381600087803b15156114f757600080fd5b6102c65a03f1151561150857600080fd5b5050505050565b600080600060075414151561152357600080fd5b600073ffffffffffffffffffffffffffffffffffffffff168573ffffffffffffffffffffffffffffffffffffffff161415151561155f57600080fd5b600160009054906101000a900473ffffffffffffffffffffffffffffffffffffffff1673ffffffffffffffffffffffffffffffffffffffff1663f8b2cb4f336000604051602001526040518263ffffffff167c0100000000000000000000000000000000000000000000000000000000028152600401808273ffffffffffffffffffffffffffffffffffffffff1673ffffffffffffffffffffffffffffffffffffffff168152602001915050602060405180830381600087803b151561162457600080fd5b6102c65a03f1151561163557600080fd5b50505060405180519050841115151561164d57600080fd5b600073ffffffffffffffffffffffffffffffffffffffff16600160009054906101000a900473ffffffffffffffffffffffffffffffffffffffff1673ffffffffffffffffffffffffffffffffffffffff16141515156116ab57600080fd5b600073ffffffffffffffffffffffffffffffffffffffff168573ffffffffffffffffffffffffffffffffffffffff16141580156117355750600a60009054906101000a900473ffffffffffffffffffffffffffffffffffffffff1673ffffffffffffffffffffffffffffffffffffffff168573ffffffffffffffffffffffffffffffffffffffff16145b156119c7578490508073ffffffffffffffffffffffffffffffffffffffff1663c0ee0b8a3386866040518463ffffffff167c0100000000000000000000000000000000000000000000000000000000028152600401808473ffffffffffffffffffffffffffffffffffffffff1673ffffffffffffffffffffffffffffffffffffffff16815260200183815260200180602001828103825283818151815260200191508051906020019080838360005b838110156117ff5780820151818401526020810190506117e4565b50505050905090810190601f16801561182c5780820380516001836020036101000a031916815260200191505b50945050505050600060405180830381600087803b151561184c57600080fd5b6102c65a03f1151561185d57600080fd5b505050600160009054906101000a900473ffffffffffffffffffffffffffffffffffffffff1673ffffffffffffffffffffffffffffffffffffffff1663a13e247d33866040518363ffffffff167c0100000000000000000000000000000000000000000000000000000000028152600401808373ffffffffffffffffffffffffffffffffffffffff1673ffffffffffffffffffffffffffffffffffffffff16815260200182815260200192505050600060405180830381600087803b151561192457600080fd5b6102c65a03f1151561193557600080fd5b50505061194d84600654611d8290919063ffffffff16565b6006819055507f5887ab9161c3be2fe962b73e068a9f29082efb6daf2bfcbd3f064bc34d1ef1b73385604051808373ffffffffffffffffffffffffffffffffffffffff1673ffffffffffffffffffffffffffffffffffffffff1681526020018281526020019250505060405180910390a1600191506119d5565b6119d2858585611d9b565b91505b509392505050565b600960009054906101000a900473ffffffffffffffffffffffffffffffffffffffff1673ffffffffffffffffffffffffffffffffffffffff163373ffffffffffffffffffffffffffffffffffffffff16141515611a3957600080fd5b600073ffffffffffffffffffffffffffffffffffffffff16600160009054906101000a900473ffffffffffffffffffffffffffffffffffffffff1673ffffffffffffffffffffffffffffffffffffffff1614151515611a9757600080fd5b600160009054906101000a900473ffffffffffffffffffffffffffffffffffffffff1673ffffffffffffffffffffffffffffffffffffffff1663fb965b0384846040518363ffffffff167c0100000000000000000000000000000000000000000000000000000000028152600401808373ffffffffffffffffffffffffffffffffffffffff1673ffffffffffffffffffffffffffffffffffffffff16815260200182815260200192505050600060405180830381600087803b1515611b5b57600080fd5b6102c65a03f11515611b6c57600080fd5b505050611b8482600654611d6490919063ffffffff16565b6006819055507f0b24afb0b3a706a172cb1b5a18f7c9c7feee7d6c23ab0d8940bebcead5bed54a816040518080602001828103825283818151815260200191508051906020019080838360005b83811015611bec578082015181840152602081019050611bd1565b50505050905090810190601f168015611c195780820380516001836020036101000a031916815260200191505b509250505060405180910390a1505050565b6000600554905090565b6000600454905090565b6000809054906101000a900473ffffffffffffffffffffffffffffffffffffffff1673ffffffffffffffffffffffffffffffffffffffff1663893d20e86000604051602001526040518163ffffffff167c0100000000000000000000000000000000000000000000000000000000028152600401602060405180830381600087803b1515611ccc57600080fd5b6102c65a03f11515611cdd57600080fd5b5050506040518051905073ffffffffffffffffffffffffffffffffffffffff163373ffffffffffffffffffffffffffffffffffffffff16141515611d2057600080fd5b80600160006101000a81548173ffffffffffffffffffffffffffffffffffffffff021916908373ffffffffffffffffffffffffffffffffffffffff16021790555050565b6000808284019050838110151515611d7857fe5b8091505092915050565b6000828211151515611d9057fe5b818303905092915050565b600080600754141515611dad57600080fd5b82611db733610f83565b1015611dc257600080fd5b600073ffffffffffffffffffffffffffffffffffffffff16600160009054906101000a900473ffffffffffffffffffffffffffffffffffffffff1673ffffffffffffffffffffffffffffffffffffffff1614151515611e2057600080fd5b600160009054906101000a900473ffffffffffffffffffffffffffffffffffffffff1673ffffffffffffffffffffffffffffffffffffffff1663a13e247d33856040518363ffffffff167c0100000000000000000000000000000000000000000000000000000000028152600401808373ffffffffffffffffffffffffffffffffffffffff1673ffffffffffffffffffffffffffffffffffffffff16815260200182815260200192505050600060405180830381600087803b1515611ee457600080fd5b6102c65a03f11515611ef557600080fd5b505050600160009054906101000a900473ffffffffffffffffffffffffffffffffffffffff1673ffffffffffffffffffffffffffffffffffffffff1663fb965b0385856040518363ffffffff167c0100000000000000000000000000000000000000000000000000000000028152600401808373ffffffffffffffffffffffffffffffffffffffff1673ffffffffffffffffffffffffffffffffffffffff16815260200182815260200192505050600060405180830381600087803b1515611fbc57600080fd5b6102c65a03f11515611fcd57600080fd5b5050507fe19260aff97b920c7df27010903aeb9c8d2be5d310a2c67824cf3f15396e4c1633858585604051808573ffffffffffffffffffffffffffffffffffffffff1673ffffffffffffffffffffffffffffffffffffffff1681526020018473ffffffffffffffffffffffffffffffffffffffff1673ffffffffffffffffffffffffffffffffffffffff16815260200183815260200180602001828103825283818151815260200191508051906020019080838360005b8381101561209f578082015181840152602081019050612084565b50505050905090810190601f1680156120cc5780820380516001836020036101000a031916815260200191505b509550505050505060405180910390a1600190509392505050565b6020604051908101604052806000815250905600a165627a7a72305820953fcd6ca212442a4d8b8ade71b239d65ab1ea66577d22ffa53f170bfe85b63c0029",
  "source": "pragma solidity ^0.4.17;\r\n\r\n/// @author Stefan Ionescu - <stefanionescu@protonmail.com>\r\n\r\nimport \"contracts/libraries/SafeMath.sol\";\r\nimport \"contracts/Owned.sol\";\r\nimport \"contracts/storage/MUTStorage.sol\";\r\nimport \"contracts/interfaces/MulaTokenInterface.sol\";\r\n\r\ncontract MulaToken is MulaTokenInterface {\r\n  \r\n    using SafeMath for uint256;\r\n\r\n    Owned private owned;\r\n    MUTStorage _storage;\r\n\r\n    string public name = \"MULA COIN\";\r\n    string public symbol = \"MUT\";\r\n\r\n    uint256 public decimals = 18;\r\n    uint256 public totalSupply = 0;\r\n    uint256 public currentlyInCirculation = 0;\r\n    uint256 blockAttack = 0;\r\n\r\n    address internal controller;\r\n\r\n    address internal stakeAddress;\r\n\r\n    address private upgradedContract;\r\n\r\n    modifier onlyAllowedAddresses {\r\n        require(msg.sender == owned.getOwner() || controller == msg.sender);\r\n        _;\r\n    }\r\n\r\n    modifier onlyOwner {\r\n\r\n        require(msg.sender == owned.getOwner());\r\n        _;\r\n\r\n    }\r\n\r\n    modifier hatch() {\r\n\r\n        require(blockAttack == 0);\r\n        _;\r\n\r\n    }\r\n\r\n    function tokenFallback(address _from, uint _value, bytes _data) public {\r\n    \r\n      require(msg.sender == stakeAddress);\r\n      require(_storage != MUTStorage(0));\r\n\r\n      _storage.increaseMUTBalance(_from, _value);\r\n\r\n      currentlyInCirculation = currentlyInCirculation.add(_value);\r\n      \r\n      FallbackData(_data);\r\n    \r\n    }\r\n\r\n    function transfer(address _to, uint256 _value, bytes _data) public hatch returns (bool) {\r\n    \r\n      require(_to != address(0));\r\n      require(_value <= _storage.getBalance(msg.sender));\r\n      require(_storage != MUTStorage(0));\r\n\r\n      if (_to != address(0) && _to == upgradedContract) {\r\n\r\n            MulaTokenInterface upgrade = MulaTokenInterface(_to);\r\n            upgrade.tokenFallback(msg.sender, _value, _data);\r\n\r\n            _storage.decreaseMUTBalance(msg.sender, _value);\r\n\r\n            currentlyInCirculation = currentlyInCirculation.sub(_value);\r\n\r\n            Upgraded(msg.sender, _value);\r\n\r\n            return true;\r\n\r\n        } else { \r\n\r\n          return transferToAddress(_to, _value, _data);\r\n\r\n        }\r\n\r\n    }\r\n\r\n    function MulaToken(address _owned, uint256 mintedTokens, string _name, string _symbol, uint256 _decimals) {\r\n\r\n        owned = Owned(_owned);\r\n        totalSupply = mintedTokens;\r\n        name = _name;\r\n        symbol = _symbol;\r\n        decimals = _decimals;\r\n\r\n    }\r\n\r\n    function initialize(address _storageAddr, address _controller) public onlyOwner {\r\n\r\n        _storage = MUTStorage(_storageAddr);\r\n\r\n        controller = _controller;\r\n\r\n    }\r\n\r\n    function changeMUTStorage(address _storageAddr) public onlyOwner {\r\n\r\n        _storage = MUTStorage(_storageAddr);\r\n\r\n    }\r\n\r\n    function allowUpgrade(address _upgradeAddr) public onlyOwner {\r\n\r\n        upgradedContract = _upgradeAddr;\r\n\r\n    }\r\n\r\n    function changeOwned(address _owned) public onlyOwner {\r\n\r\n        owned = Owned(_owned);\r\n\r\n    }\r\n\r\n    function changeController(address _controller) public onlyOwner {\r\n\r\n        controller = _controller;\r\n\r\n    }\r\n\r\n    function getName() public constant returns (string) {\r\n\r\n        return name;\r\n\r\n    }\r\n\r\n    function getSymbol() public constant returns (string) {\r\n\r\n        return symbol;\r\n\r\n    }\r\n\r\n    function getDecimals() public constant returns (uint256) {\r\n\r\n        return decimals;\r\n\r\n    }\r\n\r\n    function getTotalSupply() public constant returns (uint256) {\r\n        return totalSupply;\r\n    }\r\n\r\n    function isContract(address _addr) private constant returns (bool is_contract) {\r\n      \r\n        uint length;\r\n\r\n        assembly {\r\n                //retrieve the size of the code on target address, this needs assembly\r\n                length := extcodesize(_addr)\r\n        }\r\n\r\n        return (length > 0);\r\n\r\n    }\r\n\r\n    function balanceOf(address _owner) public constant returns (uint256 balance) {\r\n        \r\n        require(_storage != MUTStorage(0));\r\n        \r\n        return _storage.getBalance(_owner);\r\n        \r\n    }\r\n\r\n    function addToBalance(address _to, uint256 _amount) public hatch onlyAllowedAddresses {\r\n\r\n        require(_storage != MUTStorage(0));\r\n\r\n        _storage.increaseMUTBalance(_to, _amount);\r\n\r\n    }\r\n\r\n    function increaseCirculation(uint256 _amount) public hatch onlyAllowedAddresses {\r\n\r\n        require(currentlyInCirculation.add(_amount) <= totalSupply);\r\n\r\n        currentlyInCirculation = currentlyInCirculation.add(_amount);\r\n\r\n    }\r\n\r\n    function transferToAddress(address _to, uint _value, bytes _data) internal hatch returns (bool success) {\r\n    \r\n        if (balanceOf(msg.sender) < _value) \r\n            revert();\r\n\r\n        require(_storage != MUTStorage(0));\r\n    \r\n        _storage.decreaseMUTBalance(msg.sender, _value);\r\n        _storage.increaseMUTBalance(_to, _value);\r\n        Transfer(msg.sender, _to, _value, _data);\r\n        return true;\r\n\r\n    }\r\n\r\n    function escapeHatch() public onlyOwner {\r\n\r\n        if (blockAttack == 0) {\r\n\r\n            blockAttack = 1;\r\n\r\n        } else {\r\n\r\n            blockAttack = 0;\r\n\r\n        }\r\n            \r\n    }\r\n\r\n}",
  "sourcePath": "D:\\EthereumProjects\\work\\mula\\contracts\\MulaToken.sol",
  "compiler": {
    "name": "solc",
    "version": "0.4.18+commit.9cf6e910.Emscripten.clang"
  },
  "schemaVersion": "1.0.1",
  "updatedAt": "2018-04-10T12:42:43.312Z"
}