{
  "contractName": "MUTStorage",
  "abi": [
    {
      "constant": false,
      "inputs": [
        {
          "name": "_contract",
          "type": "address"
        }
      ],
      "name": "deleteContract",
      "outputs": [],
      "payable": false,
      "stateMutability": "nonpayable",
      "type": "function"
    },
    {
      "constant": false,
      "inputs": [
        {
          "name": "_contract",
          "type": "address"
        }
      ],
      "name": "addContract",
      "outputs": [],
      "payable": false,
      "stateMutability": "nonpayable",
      "type": "function"
    },
    {
      "constant": false,
      "inputs": [
        {
          "name": "_who",
          "type": "address"
        },
        {
          "name": "_amount",
          "type": "uint256"
        }
      ],
      "name": "decreaseMUTBalance",
      "outputs": [],
      "payable": false,
      "stateMutability": "nonpayable",
      "type": "function"
    },
    {
      "constant": false,
      "inputs": [
        {
          "name": "_owned",
          "type": "address"
        }
      ],
      "name": "changeOwner",
      "outputs": [],
      "payable": false,
      "stateMutability": "nonpayable",
      "type": "function"
    },
    {
      "constant": true,
      "inputs": [
        {
          "name": "_who",
          "type": "address"
        }
      ],
      "name": "getBalance",
      "outputs": [
        {
          "name": "",
          "type": "uint256"
        }
      ],
      "payable": false,
      "stateMutability": "view",
      "type": "function"
    },
    {
      "constant": false,
      "inputs": [
        {
          "name": "_who",
          "type": "address"
        },
        {
          "name": "_amount",
          "type": "uint256"
        }
      ],
      "name": "increaseMUTBalance",
      "outputs": [],
      "payable": false,
      "stateMutability": "nonpayable",
      "type": "function"
    },
    {
      "inputs": [
        {
          "name": "_owned",
          "type": "address"
        }
      ],
      "payable": false,
      "stateMutability": "nonpayable",
      "type": "constructor"
    }
  ],
  "bytecode": "0x6060604052341561000f57600080fd5b6040516020806109918339810160405280805190602001909190505080600260006101000a81548173ffffffffffffffffffffffffffffffffffffffff021916908373ffffffffffffffffffffffffffffffffffffffff160217905550506109158061007c6000396000f300606060405260043610610078576000357c0100000000000000000000000000000000000000000000000000000000900463ffffffff1680632637a4771461007d5780635f539d69146100b6578063a13e247d146100ef578063a6f9dae114610131578063f8b2cb4f1461016a578063fb965b03146101b7575b600080fd5b341561008857600080fd5b6100b4600480803573ffffffffffffffffffffffffffffffffffffffff169060200190919050506101f9565b005b34156100c157600080fd5b6100ed600480803573ffffffffffffffffffffffffffffffffffffffff16906020019091905050610370565b005b34156100fa57600080fd5b61012f600480803573ffffffffffffffffffffffffffffffffffffffff16906020019091908035906020019091905050610499565b005b341561013c57600080fd5b610168600480803573ffffffffffffffffffffffffffffffffffffffff16906020019091905050610615565b005b341561017557600080fd5b6101a1600480803573ffffffffffffffffffffffffffffffffffffffff1690602001909190505061073b565b6040518082815260200191505060405180910390f35b34156101c257600080fd5b6101f7600480803573ffffffffffffffffffffffffffffffffffffffff16906020019091908035906020019091905050610783565b005b600260009054906101000a900473ffffffffffffffffffffffffffffffffffffffff1673ffffffffffffffffffffffffffffffffffffffff1663893d20e86000604051602001526040518163ffffffff167c0100000000000000000000000000000000000000000000000000000000028152600401602060405180830381600087803b151561028757600080fd5b6102c65a03f1151561029857600080fd5b5050506040518051905073ffffffffffffffffffffffffffffffffffffffff163373ffffffffffffffffffffffffffffffffffffffff161415156102db57600080fd5b60018060008373ffffffffffffffffffffffffffffffffffffffff1673ffffffffffffffffffffffffffffffffffffffff1681526020019081526020016000205414151561032857600080fd5b6000600160008373ffffffffffffffffffffffffffffffffffffffff1673ffffffffffffffffffffffffffffffffffffffff1681526020019081526020016000208190555050565b600260009054906101000a900473ffffffffffffffffffffffffffffffffffffffff1673ffffffffffffffffffffffffffffffffffffffff1663893d20e86000604051602001526040518163ffffffff167c0100000000000000000000000000000000000000000000000000000000028152600401602060405180830381600087803b15156103fe57600080fd5b6102c65a03f1151561040f57600080fd5b5050506040518051905073ffffffffffffffffffffffffffffffffffffffff163373ffffffffffffffffffffffffffffffffffffffff1614151561045257600080fd5b60018060008373ffffffffffffffffffffffffffffffffffffffff1673ffffffffffffffffffffffffffffffffffffffff1681526020019081526020016000208190555050565b60018060003373ffffffffffffffffffffffffffffffffffffffff1673ffffffffffffffffffffffffffffffffffffffff168152602001908152602001600020541415156104e657600080fd5b6000811115156104f557600080fd5b600073ffffffffffffffffffffffffffffffffffffffff168273ffffffffffffffffffffffffffffffffffffffff161415151561053157600080fd5b806000808473ffffffffffffffffffffffffffffffffffffffff1673ffffffffffffffffffffffffffffffffffffffff168152602001908152602001600020541015151561057e57600080fd5b6105cf816000808573ffffffffffffffffffffffffffffffffffffffff1673ffffffffffffffffffffffffffffffffffffffff168152602001908152602001600020546108b290919063ffffffff16565b6000808473ffffffffffffffffffffffffffffffffffffffff1673ffffffffffffffffffffffffffffffffffffffff168152602001908152602001600020819055505050565b600260009054906101000a900473ffffffffffffffffffffffffffffffffffffffff1673ffffffffffffffffffffffffffffffffffffffff1663893d20e86000604051602001526040518163ffffffff167c0100000000000000000000000000000000000000000000000000000000028152600401602060405180830381600087803b15156106a357600080fd5b6102c65a03f115156106b457600080fd5b5050506040518051905073ffffffffffffffffffffffffffffffffffffffff163373ffffffffffffffffffffffffffffffffffffffff161415156106f757600080fd5b80600260006101000a81548173ffffffffffffffffffffffffffffffffffffffff021916908373ffffffffffffffffffffffffffffffffffffffff16021790555050565b60008060008373ffffffffffffffffffffffffffffffffffffffff1673ffffffffffffffffffffffffffffffffffffffff168152602001908152602001600020549050919050565b60018060003373ffffffffffffffffffffffffffffffffffffffff1673ffffffffffffffffffffffffffffffffffffffff168152602001908152602001600020541415156107d057600080fd5b6000811115156107df57600080fd5b600073ffffffffffffffffffffffffffffffffffffffff168273ffffffffffffffffffffffffffffffffffffffff161415151561081b57600080fd5b61086c816000808573ffffffffffffffffffffffffffffffffffffffff1673ffffffffffffffffffffffffffffffffffffffff168152602001908152602001600020546108cb90919063ffffffff16565b6000808473ffffffffffffffffffffffffffffffffffffffff1673ffffffffffffffffffffffffffffffffffffffff168152602001908152602001600020819055505050565b60008282111515156108c057fe5b818303905092915050565b60008082840190508381101515156108df57fe5b80915050929150505600a165627a7a7230582010444741ac95b2cd268d505393feb70b5b3f11d64d9dabac3b55fc640a221a950029",
  "source": "pragma solidity ^0.4.17;\r\n\r\n/// @author Stefan Ionescu - <stefanionescu@protonmail.com>\r\n\r\nimport \"contracts/Owned.sol\";\r\nimport \"contracts/libraries/SafeMath.sol\";\r\n\r\ncontract MUTStorage {\r\n\r\n    using SafeMath for uint256;\r\n\r\n    mapping(address => uint256) balances;\r\n\r\n    mapping(address => uint256) allowedContracts;\r\n\r\n    Owned private owned;\r\n\r\n    modifier onlyAllowedContracts {\r\n\r\n        require(allowedContracts[msg.sender] == 1);\r\n        _;\r\n\r\n    }\r\n\r\n    modifier onlyOwner {\r\n\r\n        require(msg.sender == owned.getOwner());\r\n        _;\r\n\r\n    }\r\n\r\n    function MUTStorage(address _owned) {\r\n\r\n        owned = Owned(_owned);\r\n\r\n    }\r\n\r\n    function changeOwner(address _owned) onlyOwner {\r\n\r\n        owned = Owned(_owned);\r\n\r\n    }\r\n\r\n    function addContract(address _contract) onlyOwner {\r\n\r\n        allowedContracts[_contract] = 1;\r\n\r\n    }\r\n\r\n    function deleteContract(address _contract) onlyOwner {\r\n\r\n        require(allowedContracts[_contract] == 1);\r\n\r\n        allowedContracts[_contract] = 0;\r\n\r\n    }\r\n\r\n    function getBalance(address _who) public constant returns (uint256) {\r\n\r\n        return balances[_who];\r\n\r\n    }\r\n\r\n    function increaseMUTBalance(address _who, uint256 _amount) onlyAllowedContracts {\r\n\r\n        require(_amount > 0);\r\n        require(_who != address(0));\r\n\r\n        balances[_who] = balances[_who].add(_amount);\r\n\r\n    }\r\n\r\n    function decreaseMUTBalance(address _who, uint256 _amount) onlyAllowedContracts {\r\n\r\n        require(_amount > 0);\r\n        require(_who != address(0));\r\n        require(balances[_who] >= _amount);\r\n\r\n        balances[_who] = balances[_who].sub(_amount);\r\n\r\n    }\r\n\r\n}",
  "sourcePath": "D:\\EthereumProjects\\work\\mula\\contracts\\storage\\MUTStorage.sol",
  "compiler": {
    "name": "solc",
    "version": "0.4.18+commit.9cf6e910.Emscripten.clang"
  },
  "schemaVersion": "1.0.1",
  "updatedAt": "2018-04-10T12:42:43.207Z"
}