{
  "contractName": "SafeMath",
  "abi": [
    {
      "constant": true,
      "inputs": [
        {
          "name": "a",
          "type": "bytes32"
        },
        {
          "name": "b",
          "type": "bytes32"
        }
      ],
      "name": "addFloat",
      "outputs": [
        {
          "name": "result",
          "type": "bytes32"
        }
      ],
      "payable": false,
      "stateMutability": "view",
      "type": "function"
    },
    {
      "constant": true,
      "inputs": [
        {
          "name": "a",
          "type": "bytes32"
        },
        {
          "name": "b",
          "type": "bytes32"
        }
      ],
      "name": "mulFloat",
      "outputs": [
        {
          "name": "result",
          "type": "bytes32"
        }
      ],
      "payable": false,
      "stateMutability": "view",
      "type": "function"
    },
    {
      "constant": true,
      "inputs": [
        {
          "name": "a",
          "type": "bytes32"
        }
      ],
      "name": "log2bytes",
      "outputs": [
        {
          "name": "result",
          "type": "bytes32"
        }
      ],
      "payable": false,
      "stateMutability": "view",
      "type": "function"
    },
    {
      "constant": true,
      "inputs": [
        {
          "name": "a",
          "type": "bytes32"
        },
        {
          "name": "b",
          "type": "bytes32"
        }
      ],
      "name": "compare",
      "outputs": [
        {
          "name": "result",
          "type": "int8"
        }
      ],
      "payable": false,
      "stateMutability": "view",
      "type": "function"
    },
    {
      "constant": true,
      "inputs": [
        {
          "name": "a",
          "type": "int256"
        }
      ],
      "name": "initFromInt",
      "outputs": [
        {
          "name": "result",
          "type": "bytes32"
        }
      ],
      "payable": false,
      "stateMutability": "view",
      "type": "function"
    },
    {
      "constant": true,
      "inputs": [
        {
          "name": "a",
          "type": "bytes32"
        },
        {
          "name": "b",
          "type": "bytes32"
        }
      ],
      "name": "compareAbs",
      "outputs": [
        {
          "name": "result",
          "type": "int8"
        }
      ],
      "payable": false,
      "stateMutability": "view",
      "type": "function"
    },
    {
      "constant": true,
      "inputs": [
        {
          "name": "_number",
          "type": "bytes32"
        }
      ],
      "name": "toUint",
      "outputs": [
        {
          "name": "",
          "type": "uint256"
        }
      ],
      "payable": false,
      "stateMutability": "view",
      "type": "function"
    },
    {
      "constant": true,
      "inputs": [
        {
          "name": "a",
          "type": "bytes32"
        }
      ],
      "name": "fastInvSqrt",
      "outputs": [
        {
          "name": "result",
          "type": "bytes32"
        }
      ],
      "payable": false,
      "stateMutability": "view",
      "type": "function"
    },
    {
      "constant": true,
      "inputs": [
        {
          "name": "x",
          "type": "uint256"
        }
      ],
      "name": "toBytes",
      "outputs": [
        {
          "name": "b",
          "type": "bytes"
        }
      ],
      "payable": false,
      "stateMutability": "view",
      "type": "function"
    },
    {
      "constant": true,
      "inputs": [
        {
          "name": "a",
          "type": "bytes32"
        }
      ],
      "name": "toArray",
      "outputs": [
        {
          "name": "result",
          "type": "uint256[3]"
        }
      ],
      "payable": false,
      "stateMutability": "view",
      "type": "function"
    },
    {
      "constant": true,
      "inputs": [
        {
          "name": "a",
          "type": "bytes32"
        },
        {
          "name": "b",
          "type": "bytes32"
        }
      ],
      "name": "divNaive",
      "outputs": [
        {
          "name": "result",
          "type": "bytes32"
        }
      ],
      "payable": false,
      "stateMutability": "view",
      "type": "function"
    },
    {
      "constant": true,
      "inputs": [
        {
          "name": "a",
          "type": "bytes32"
        }
      ],
      "name": "negate",
      "outputs": [
        {
          "name": "result",
          "type": "bytes32"
        }
      ],
      "payable": false,
      "stateMutability": "view",
      "type": "function"
    },
    {
      "constant": true,
      "inputs": [
        {
          "name": "_array",
          "type": "uint256[3]"
        }
      ],
      "name": "fromArray",
      "outputs": [
        {
          "name": "packed",
          "type": "bytes32"
        }
      ],
      "payable": false,
      "stateMutability": "view",
      "type": "function"
    },
    {
      "constant": true,
      "inputs": [
        {
          "name": "a",
          "type": "bytes32"
        },
        {
          "name": "b",
          "type": "bytes32"
        }
      ],
      "name": "subFloat",
      "outputs": [
        {
          "name": "result",
          "type": "bytes32"
        }
      ],
      "payable": false,
      "stateMutability": "view",
      "type": "function"
    },
    {
      "constant": true,
      "inputs": [
        {
          "name": "a",
          "type": "bytes32"
        },
        {
          "name": "b",
          "type": "bytes32"
        }
      ],
      "name": "divFloat",
      "outputs": [
        {
          "name": "result",
          "type": "bytes32"
        }
      ],
      "payable": false,
      "stateMutability": "view",
      "type": "function"
    }
  ],
  "bytecode": "0x6060604052341561000f57600080fd5b611a328061001e6000396000f3006060604052600436106100db576000357c0100000000000000000000000000000000000000000000000000000000900463ffffffff1680631c9526e3146100e05780631cc1846d146101255780631d75a2741461016a57806328602ab2146101a25780632f1a549b146101e55780635139adf1146102195780636893cc221461025c5780636e7725211461028c578063775a8f5e146102c457806385cf47e514610355578063932b4222146103ad578063baf4839e146103f2578063ca2401941461042a578063d71093dd14610481578063f103c9e8146104c6575b600080fd5b6101076004808035600019169060200190919080356000191690602001909190505061050b565b60405180826000191660001916815260200191505060405180910390f35b61014c6004808035600019169060200190919080356000191690602001909190505061054f565b60405180826000191660001916815260200191505060405180910390f35b610184600480803560001916906020019091905050610593565b60405180826000191660001916815260200191505060405180910390f35b6101c9600480803560001916906020019091908035600019169060200190919050506105c1565b604051808260000b60000b815260200191505060405180910390f35b6101fb60048080359060200190919050506105fd565b60405180826000191660001916815260200191505060405180910390f35b61024060048080356000191690602001909190803560001916906020019091905050610639565b604051808260000b60000b815260200191505060405180910390f35b610276600480803560001916906020019091905050610675565b6040518082815260200191505060405180910390f35b6102a6600480803560001916906020019091905050610683565b60405180826000191660001916815260200191505060405180910390f35b6102da60048080359060200190919050506107a6565b6040518080602001828103825283818151815260200191508051906020019080838360005b8381101561031a5780820151818401526020810190506102ff565b50505050905090810190601f1680156103475780820380516001836020036101000a031916815260200191505b509250505060405180910390f35b61036f6004808035600019169060200190919050506107df565b6040518082600360200280838360005b8381101561039a57808201518184015260208101905061037f565b5050505090500191505060405180910390f35b6103d460048080356000191690602001909190803560001916906020019091905050610890565b60405180826000191660001916815260200191505060405180910390f35b61040c6004808035600019169060200190919050506108d4565b60405180826000191660001916815260200191505060405180910390f35b61046360048080606001906003806020026040519081016040528092919082600360200280828437820191505050505091905050610907565b60405180826000191660001916815260200191505060405180910390f35b6104a8600480803560001916906020019091908035600019169060200190919050506109e9565b60405180826000191660001916815260200191505060405180910390f35b6104ed60048080356000191690602001909190803560001916906020019091905050610a35565b60405180826000191660001916815260200191505060405180910390f35b60006105156119ca565b61051d6119ca565b610526856107df565b9150610531846107df565b90506105456105408383610ad7565b610907565b9250505092915050565b60006105596119ca565b6105616119ca565b61056a856107df565b9150610575846107df565b90506105896105848383610dcb565b610907565b9250505092915050565b600061059d6119ca565b6105a6836107df565b90506105b96105b48261109c565b610907565b915050919050565b60006105cb6119ca565b6105d36119ca565b6105dc856107df565b91506105e7846107df565b90506105f38282611274565b9250505092915050565b60006106076119ca565b600083141561061c5760006001029150610633565b61062583611371565b905061063081610907565b91505b50919050565b60006106436119ca565b61064b6119ca565b610654856107df565b915061065f846107df565b905061066b8282611479565b9250505092915050565b600081600190049050919050565b60008061068e6119ca565b6106966119ca565b61069e6119ca565b60016106ae8760006001026105c1565b60000b1415156106bd57600080fd5b600186600190049060020a90047f5fffe6eb50c7b537a9cd9f02e504fcfbfd9ec519e04e8f0a29d961d2aaeb2223600102600190040393506107217f3ffff800000000000000000000000000000000000000000000000000000000006001026107df565b925061072f846001026107df565b915061073a866107df565b9050600181600160038110151561074d57fe5b60200201510381600160038110151561076257fe5b6020020181815250506107908261078b85610786856107818889610dcb565b610dcb565b6115a0565b610dcb565b915061079b82610907565b945050505050919050565b6107ae6119f2565b60206040518059106107bd5750595b9080825280601f01601f19166020018201604052509050816020820152919050565b6107e76119ca565b600080600080600102600019168560001916141561080757839350610888565b60ff85600019169060020a9004600190049250600160ec01600186600019169060020a02600019169060020a900460019004915060ec60019060020a026001601301600160130187600019169060020a02600019169060020a9004600190040190506060604051908101604052808481526020018381526020018281525093505b505050919050565b600061089a6119ca565b6108a26119ca565b6108ab856107df565b91506108b6846107df565b90506108ca6108c5838361169b565b610907565b9250505092915050565b60008060010260001916826000191614156108f157819050610902565b60ff60019060020a02600102821890505b919050565b600080600080600085600060038110151561091e57fe5b60200201511480156109435750600085600160038110151561093c57fe5b6020020151145b80156109625750600085600260038110151561095b57fe5b6020020151145b1561097357600060010293506109e1565b60ff85600060038110151561098457fe5b60200201519060020a02600102925060ec8560016003811015156109a457fe5b60200201519060020a02600102915060ec60019060020a026001028560026003811015156109ce57fe5b6020020151600102189050808284171793505b505050919050565b60006109f36119ca565b6109fb6119ca565b610a04856107df565b9150610a17610a12856108d4565b6107df565b9050610a2b610a268383610ad7565b610907565b9250505092915050565b60008060006001026000191683600019161415610a5157600080fd5b6001610a616000600102856105c1565b60000b1415610aaa57610a73836108d4565b9050610a9884610a93610a8584610683565b610a8e85610683565b61054f565b61054f565b9050610aa3816108d4565b9150610ad0565b610acd610ab684610683565b610ac886610ac387610683565b61054f565b61054f565b91505b5092915050565b610adf6119ca565b6000806000806000806000806000808c6000600381101515610afd57fe5b6020020151148015610b22575060008c6001600381101515610b1b57fe5b6020020151145b8015610b41575060008c6002600381101515610b3a57fe5b6020020151145b15610b4e578a9950610dbc565b60008b6000600381101515610b5f57fe5b6020020151148015610b84575060008b6001600381101515610b7d57fe5b6020020151145b8015610ba3575060008b6002600381101515610b9c57fe5b6020020151145b15610bb0578b9950610dbc565b8b6001600381101515610bbf57fe5b602002015198508b6001600381101515610bd557fe5b602002015197508a6001600381101515610beb57fe5b602002015196508b6002600381101515610c0157fe5b602002015195508a6002600381101515610c1757fe5b602002015194508b6000600381101515610c2d57fe5b602002015193508a6000600381101515610c4357fe5b60200201519250600091506000905087871115610c6e57869850878703869060020a90049550610c84565b86881115610c8357868803859060020a900494505b5b60028385011415610c9d57600190508486019150610d19565b6001841415610cd55784861115610cbc57848603915060019050610cd0565b8585101515610ccf578585039150600090505b5b610d18565b6001831415610d0d5785851115610cf457858503915060019050610d08565b8486101515610d07578486039150600090505b5b610d17565b8486019150600090505b5b5b6000821415610d4857606060405190810160405280600081526020016000815260200160008152509950610dbc565b5b600160ec60029060020a0203821115610d74576001829060020a900491508880600101995050610d49565b5b60ec60019060020a02821015610d9d576001829060020a029150888060019003995050610d75565b6060604051908101604052808281526020018a81526020018381525099505b50505050505050505092915050565b610dd36119ca565b6000806000806000806000806000808c6000600381101515610df157fe5b6020020151148015610e16575060008c6001600381101515610e0f57fe5b6020020151145b8015610e35575060008c6002600381101515610e2e57fe5b6020020151145b15610e605760606040519081016040528060008152602001600081526020016000815250995061108d565b60008b6000600381101515610e7157fe5b6020020151148015610e96575060008b6001600381101515610e8f57fe5b6020020151145b8015610eb5575060008b6002600381101515610eae57fe5b6020020151145b15610ee05760606040519081016040528060008152602001600081526020016000815250995061108d565b60028b6000600381101515610ef157fe5b60200201518d6000600381101515610f0557fe5b602002015101811515610f1457fe5b0698506203ffff8b6001600381101515610f2a57fe5b60200201518d6001600381101515610f3e57fe5b6020020151010397506207ffff881115610f5757600080fd5b600160ec9060020a90048c6002600381101515610f7057fe5b60200201519060020a90049650610100600160ec9060020a900460ff038d6002600381101515610f9c57fe5b60200201519060020a029060020a90049550600160ec9060020a90048b6002600381101515610fc757fe5b60200201519060020a90049450610100600160ec9060020a900460ff038c6002600381101515610ff357fe5b60200201519060020a029060020a9004935083860292508486028488020191508487029050600160ec9060020a9004839060020a900482019150600160ec9060020a9004829060020a9004810190505b600160ec60029060020a020381111561106e576001819060020a900490508780600101985050611043565b6060604051908101604052808a81526020018981526020018281525099505b50505050505050505092915050565b6110a46119ca565b6110ac6119ca565b6110b46119ca565b6110bc6119ca565b6110c46119ca565b60008060008860006003811015156110d857fe5b60200201511415156110e957600080fd5b61110a6203ffff8960016003811015156110ff57fe5b602002015103611371565b96506111166001611371565b95506111226002611371565b945061114088600260038110151561113657fe5b6020020151611371565b935060606040519081016040528060008152602001600081526020016000815250925060ec84600160038110151561117457fe5b60200201510384600160038110151561118957fe5b60200201818152505060109150600190505b818111151561122b576111ae8485610dcb565b93506111ba8386610dcb565b925060008114156111cd57839650611269565b60016111d98587611274565b60000b141561121e576111ec8387610ad7565b925060018460016003811015156111ff57fe5b60200201510384600160038110151561121457fe5b6020020181815250505b808060010191505061119b565b8183600160038110151561123b57fe5b60200201510383600160038110151561125057fe5b6020020181815250506112638784610ad7565b96508696505b505050505050919050565b60008083600060038110151561128657fe5b60200201511480156112ab575060008260006003811015156112a457fe5b6020020151145b156112c1576112ba8383611479565b905061136b565b60018360006003811015156112d257fe5b60200201511480156112f7575060018260006003811015156112f057fe5b6020020151145b15611310576113068383611479565b600003905061136b565b81600060038110151561131f57fe5b602002015183600060038110151561133357fe5b60200201511115611366577fffffffffffffffffffffffffffffffffffffffffffffffffffffffffffffffff905061136b565b600190505b92915050565b6113796119ca565b600080600080600086141561139057849450611470565b8593506000925060008412156113ab57600192508360000393505b60ec6203ffff0191508390505b600160ec60029060020a02038111156113e3576001819060020a9004905081806001019250506113b8565b5b60ec60019060020a0281101561140c576001819060020a0290508180600190039250506113e4565b60ec60019060020a02811015801561142f5750600160ec60029060020a02038111155b151561143757fe5b6207ffff821080156114495750600082115b151561145157fe5b6060604051908101604052808481526020018381526020018281525094505b50505050919050565b600081600160038110151561148a57fe5b602002015183600160038110151561149e57fe5b602002015111156114b2576001905061159a565b8160016003811015156114c157fe5b60200201518360016003811015156114d557fe5b60200201511015611508577fffffffffffffffffffffffffffffffffffffffffffffffffffffffffffffffff905061159a565b81600260038110151561151757fe5b602002015183600260038110151561152b57fe5b6020020151111561153f576001905061159a565b81600260038110151561154e57fe5b602002015183600260038110151561156257fe5b60200201511015611595577fffffffffffffffffffffffffffffffffffffffffffffffffffffffffffffffff905061159a565b600090505b92915050565b6115a86119ca565b6115b06119ca565b60008460006003811015156115c157fe5b60200201511480156115e6575060008460016003811015156115df57fe5b6020020151145b8015611605575060008460026003811015156115fe57fe5b6020020151145b1561161a57611613836118f4565b9150611694565b600083600060038110151561162b57fe5b60200201511480156116505750600083600160038110151561164957fe5b6020020151145b801561166f5750600083600260038110151561166857fe5b6020020151145b1561167c57839150611694565b611685836118f4565b90506116918482610ad7565b91505b5092915050565b6116a36119ca565b60008060008060008060008060008060008060008f60006003811015156116c657fe5b60200201511480156116eb575060008f60016003811015156116e457fe5b6020020151145b801561170a575060008f600260038110151561170357fe5b6020020151145b1561173557606060405190810160405280600081526020016000815260200160008152509c506118e2565b60008e600060038110151561174657fe5b602002015114801561176b575060008e600160038110151561176457fe5b6020020151145b801561178a575060008e600260038110151561178357fe5b6020020151145b1561179457600080fd5b8e60016003811015156117a357fe5b60200201519b508d60016003811015156117b957fe5b60200201519a508e60026003811015156117cf57fe5b602002015199508d60026003811015156117e557fe5b602002015198508e60006003811015156117fb57fe5b602002015197508d600060038110151561181157fe5b602002015196508a8c6203ffff0103955060008611801561183457506207ffff86105b151561183c57fe5b600287890181151561184a57fe5b06945060009350899250888a1015611870576001839060020a0292508580600190039650505b60ec9150600090505b60ec8110156118c35781898481151561188e57fe5b049060020a0284019350818060019003925050600189848115156118ae57fe5b069060020a0292508080600101915050611879565b606060405190810160405280868152602001878152602001858152509c505b50505050505050505050505092915050565b6118fc6119ca565b600082600060038110151561190d57fe5b60200201511480156119325750600082600160038110151561192b57fe5b6020020151145b80156119515750600082600260038110151561194a57fe5b6020020151145b1561195e578190506119c5565b6060604051908101604052806002600185600060038110151561197d57fe5b60200201510181151561198c57fe5b0681526020018360016003811015156119a157fe5b602002015181526020018360026003811015156119ba57fe5b602002015181525090505b919050565b6060604051908101604052806003905b60008152602001906001900390816119da5790505090565b6020604051908101604052806000815250905600a165627a7a72305820b59d50a1cc2ce6e5c7d9318c636c238d491d02abe4f861fc8b26fc39c2c617d20029",
  "source": "pragma solidity ^0.4.17;\r\n\r\n/**\r\n * @title SafeMath\r\n * @dev Math operations with safety checks that throw on error\r\n */\r\n\r\nlibrary SafeMath {\r\n\r\n    uint256 constant SIGNIF_BITS = 236;\r\n    uint256 constant EXP_BITS = 19;\r\n    uint256 constant SIGN_BITS = 1;\r\n    \r\n    uint256 constant EXP_MIN = 0;\r\n    uint256 constant EXP_BIAS = 262143;\r\n    uint256 constant EXP_MAX = 524287;\r\n    \r\n    uint256 constant INT128_MAX = (uint256(1) << 127) - 1;\r\n    uint256 constant INT128_MIN = (uint256(1) << 127);\r\n    \r\n    uint256 constant SIGNIF_MAX = (uint256(2) << SIGNIF_BITS) - 1;\r\n    uint256 constant SIGNIF_MIN = (uint256(1) << SIGNIF_BITS);\r\n    bytes32 constant SIGNIF_MAX_BYTES = bytes32(SIGNIF_MAX);\r\n    bytes32 constant SIGNIF_MIN_BYTES = bytes32(SIGNIF_MIN);\r\n\r\n    bytes32 constant ZERO_BYTES = bytes32(0);\r\n\r\n    uint256 constant INV_SQRT_MAGIC = uint256(bytes32(0x5fffe6eb50c7b537a9cd9f02e504fcfbfd9ec519e04e8f0a29d961d2aaeb2223));\r\n    \r\n  function mul(uint256 a, uint256 b) internal constant returns (uint256) {\r\n\r\n    uint256 c = a * b;\r\n    assert(a == 0 || c / a == b);\r\n    return c;\r\n\r\n  }\r\n\r\n  function div(uint256 a, uint256 b) internal constant returns (uint256) {\r\n\r\n    // assert(b > 0); // Solidity automatically throws when dividing by 0\r\n    uint256 c = a / b;\r\n    // assert(a == b * c + a % b); // There is no case in which this doesn't hold\r\n    return c;\r\n\r\n  }\r\n\r\n  function sub(uint256 a, uint256 b) internal constant returns (uint256) {\r\n\r\n    assert(b <= a);\r\n    return a - b;\r\n\r\n  }\r\n  \r\n  function add(uint256 a, uint256 b) internal constant returns (uint256) {\r\n\r\n    uint256 c = a + b;\r\n    assert(c >= a);\r\n    return c;\r\n\r\n  }\r\n\r\n    function toArray(bytes32 a) public constant returns (uint256[3] memory result) {\r\n        if (a == ZERO_BYTES) {\r\n            return result;\r\n        }\r\n        uint256 newSign = uint256(a >> 255);\r\n        uint256 newExp = uint256((a << SIGN_BITS) >> (SIGNIF_BITS+SIGN_BITS));\r\n       \r\n        uint256 newSignif = uint256((a << (EXP_BITS + SIGN_BITS)) >> (EXP_BITS + SIGN_BITS)) + SIGNIF_MIN;\r\n        return [newSign, newExp, newSignif];\r\n    }\r\n    \r\n    function fromArray(uint256[3] _array) public constant returns (bytes32 packed) {\r\n        if (_array[0] == 0 && _array[1] == 0 && _array[2] == 0) {\r\n            return ZERO_BYTES;\r\n        }\r\n        bytes32 packedSign = bytes32(_array[0] << 255);\r\n        bytes32 packedExp = bytes32(_array[1] << SIGNIF_BITS);\r\n        bytes32 packedSignif = bytes32(_array[2]) ^ SIGNIF_MIN_BYTES;    \r\n        packed = packedSign | packedExp | packedSignif;\r\n    }\r\n    \r\n    function addFloat(bytes32 a, bytes32 b) public constant returns (bytes32 result) {\r\n        uint256[3] memory aArray = toArray(a);\r\n        uint256[3] memory bArray = toArray(b);\r\n        return fromArray(addArrays(aArray, bArray));\r\n    }\r\n    \r\n    function addArrays(uint256[3] aArray, uint256[3] bArray) internal constant returns (uint256[3] memory result) {\r\n        if (aArray[0] == 0 && aArray[1] == 0 && aArray[2] == 0) {\r\n            return bArray;\r\n        }\r\n        if (bArray[0] == 0 && bArray[1] == 0 && bArray[2] == 0) {\r\n            return aArray;\r\n        }\r\n        uint256 newExp = aArray[1];\r\n        uint256 expA = aArray[1];\r\n        uint256 expB = bArray[1];\r\n        uint256 signifA = aArray[2];\r\n        uint256 signifB = bArray[2];\r\n        uint256 signA = aArray[0];\r\n        uint256 signB = bArray[0];\r\n        uint256 newSignif = 0;\r\n        uint256 newSign = 0;\r\n\r\n        if (expB > expA) {\r\n            newExp = expB;\r\n            signifA = signifA >> (expB - expA);\r\n        } else if (expA > expB) {\r\n            signifB = signifB >> (expA - expB);\r\n        }\r\n        \r\n        if (signA + signB == 2) {\r\n            newSign = 1;\r\n            newSignif = signifA + signifB;\r\n        } else if (signA == 1) {\r\n            if (signifA > signifB) {\r\n                newSignif = signifA - signifB;\r\n                newSign = 1;\r\n            } else if (signifB >= signifA) {\r\n                newSignif = signifB - signifA;\r\n                newSign = 0;\r\n            }\r\n        } else if (signB == 1) {\r\n            if (signifB > signifA) {\r\n                newSignif = signifB - signifA;\r\n                newSign = 1;\r\n            } else if (signifA >= signifB) {\r\n                newSignif = signifA - signifB;\r\n                newSign = 0;\r\n            }\r\n        } else {\r\n            newSignif = signifA + signifB;\r\n            newSign = 0;\r\n        }\r\n        if (newSignif == 0) {\r\n            return [uint256(0), uint256(0), uint256(0)];\r\n        }\r\n        while (newSignif > SIGNIF_MAX) {\r\n            newSignif = newSignif >> 1;\r\n            newExp++;\r\n        }\r\n        while (newSignif < SIGNIF_MIN) {\r\n            newSignif = newSignif << 1;\r\n            newExp--;\r\n        }        \r\n        return [newSign, newExp, newSignif];\r\n    }\r\n   \r\n\r\n    function negate(bytes32 a) public constant returns (bytes32 result) {\r\n        if (a == ZERO_BYTES) {\r\n            return a;\r\n        }\r\n        return a ^ bytes32(uint256(1) << 255);\r\n    } \r\n\r\n    function negateArray(uint256[3] aArray) internal constant returns (uint256[3] memory result) {\r\n        if (aArray[0] == 0 && aArray[1] == 0 && aArray[2] == 0) {\r\n            return aArray;\r\n        }\r\n        return [(aArray[0] + 1 )%2, aArray[1], aArray[2]];\r\n    }\r\n \r\n    function subFloat(bytes32 a, bytes32 b) public constant returns (bytes32 result) {\r\n        uint256[3] memory aArray = toArray(a);\r\n        uint256[3] memory bArray = toArray(negate(b));\r\n        return fromArray(addArrays(aArray, bArray));\r\n    }\r\n    \r\n    function subArrays(uint256[3] aArray, uint256[3] _bArray) internal constant returns (uint256[3] memory result) {\r\n        if (aArray[0] == 0 && aArray[1] == 0 && aArray[2] == 0) {\r\n            return negateArray(_bArray);\r\n        }\r\n        if (_bArray[0] == 0 && _bArray[1] == 0 && _bArray[2] == 0) {\r\n            return aArray;\r\n        }\r\n        uint256[3] memory bArray = negateArray(_bArray);\r\n        return addArrays(aArray, bArray);\r\n    }\r\n  \r\n    function mulFloat(bytes32 a, bytes32 b) public constant returns (bytes32 result) {\r\n        uint256[3] memory aArray = toArray(a);\r\n        uint256[3] memory bArray = toArray(b);\r\n        return fromArray(mulArrays(aArray, bArray));\r\n    }\r\n    \r\n    function mulArrays(uint256[3] aArray, uint256[3] bArray) internal constant returns (uint256[3] memory result) {\r\n        if (aArray[0] == 0 && aArray[1] == 0 && aArray[2] == 0) {\r\n            return [uint256(0), uint256(0), uint256(0)];\r\n        }\r\n        if (bArray[0] == 0 && bArray[1] == 0 && bArray[2] == 0) {\r\n            return [uint256(0), uint256(0), uint256(0)];\r\n        }\r\n        uint256 newSign = (aArray[0] + bArray[0]) % 2;\r\n        uint256 newExp = (aArray[1] + bArray[1]) - EXP_BIAS;\r\n        if (newExp > EXP_MAX) {\r\n            revert();\r\n            newExp = EXP_MAX;\r\n            newSignif = SIGNIF_MAX;\r\n            return [newSign, newExp, newSignif];\r\n        }\r\n\r\n        uint256 topA = aArray[2] >> (SIGNIF_BITS >> 1);\r\n        uint256 botA = aArray[2] << (255 - (SIGNIF_BITS >> 1)) >> 256;\r\n\r\n        uint256 topB = bArray[2] >> (SIGNIF_BITS >> 1);\r\n        uint256 botB = bArray[2] << (255 - (SIGNIF_BITS >> 1)) >> 256;\r\n\r\n        uint256 bottomMul = botA*botB;\r\n        uint256 midMul = topA*botB + botA*topB;\r\n        uint256 newSignif = topA*topB;\r\n\r\n        midMul = midMul + (bottomMul >> (SIGNIF_BITS >> 1));\r\n        newSignif = newSignif + (midMul >> (SIGNIF_BITS >> 1));\r\n\r\n        while (newSignif > SIGNIF_MAX) {\r\n            newSignif = newSignif >> 1;\r\n            newExp++;\r\n        }\r\n        return [newSign, newExp, newSignif];\r\n    }   \r\n    \r\n    function fastInvSqrt(bytes32 a) public constant returns (bytes32 result) {\r\n        require(compare(a, ZERO_BYTES) == 1);\r\n        uint256 tmp = INV_SQRT_MAGIC - (uint256(a) >> 1);\r\n        uint256[3] memory THREEHALFS = toArray(0x3FFFF80000000000000000000000000000000000000000000000000000000000);\r\n        uint256[3] memory resArray = toArray(bytes32(tmp));\r\n        uint256[3] memory resDivByTwo = toArray(a);\r\n        resDivByTwo[1] = resDivByTwo[1]-1;\r\n        resArray = mulArrays(resArray, subArrays(THREEHALFS, mulArrays(resDivByTwo, mulArrays(resArray, resArray) ) ) ); \r\n        // resArray = mulArrays(resArray, subArrays(THREEHALFS, mulArrays(resDivByTwo, mulArrays(resArray, resArray) ) ) );\r\n        return fromArray(resArray);\r\n        // y = y * (threehalfs - (x2 * y * y));\r\n\r\n    }\r\n\r\n    function divFloat(bytes32 a, bytes32 b) public constant returns (bytes32 result) {\r\n        if (b == ZERO_BYTES) {\r\n            revert();\r\n        }\r\n        if (compare(ZERO_BYTES, b) == 1) {\r\n            bytes32 _b = negate(b);\r\n            _b = mulFloat(a, mulFloat(fastInvSqrt(_b),fastInvSqrt(_b)));\r\n            return negate(_b);\r\n        }\r\n        return mulFloat(fastInvSqrt(b), mulFloat(a,fastInvSqrt(b)));\r\n    }\r\n    \r\n    function divArrays(uint256[3] aArray, uint256[3] bArray) internal constant returns (uint256[3] memory result) {\r\n        if (aArray[0] == 0 && aArray[1] == 0 && aArray[2] == 0) {\r\n            return [uint256(0), uint256(0), uint256(0)];\r\n        }\r\n        if (bArray[0] == 0 && bArray[1] == 0 && bArray[2] == 0) {\r\n            revert();\r\n        }\r\n        bytes32 a = fromArray(aArray);\r\n        bytes32 b = fromArray(bArray);\r\n        return toArray(divFloat(a,b));\r\n    }    \r\n\r\n    \r\n    function divNaive(bytes32 a, bytes32 b) public constant returns (bytes32 result) {\r\n        uint256[3] memory aArray = toArray(a);\r\n        uint256[3] memory bArray = toArray(b);\r\n        return fromArray(divNaiveArrays(aArray, bArray));\r\n    }\r\n    \r\n    function divNaiveArrays(uint256[3] aArray, uint256[3] bArray) internal constant returns (uint256[3] memory result) {\r\n        if (aArray[0] == 0 && aArray[1] == 0 && aArray[2] == 0) {\r\n            return [uint256(0), uint256(0), uint256(0)];\r\n        }\r\n        if (bArray[0] == 0 && bArray[1] == 0 && bArray[2] == 0) {\r\n            revert();\r\n        }\r\n        uint256 expA = aArray[1];\r\n        uint256 expB = bArray[1];\r\n        uint256 signifA = aArray[2];\r\n        uint256 signifB = bArray[2];\r\n        uint256 signA = aArray[0];\r\n        uint256 signB = bArray[0];\r\n        uint256 newExp = EXP_BIAS + expA - expB;\r\n        assert(newExp > EXP_MIN && newExp < EXP_MAX);\r\n        uint256 newSign = (signA + signB) % 2;\r\n        uint256 newSignif = 0;\r\n        uint256 cop = signifA;\r\n        if (signifA < signifB) {\r\n            cop = cop << 1;\r\n            newExp--;\r\n        }\r\n        uint256 shift = SIGNIF_BITS;\r\n        for (uint256 i = 0; i < SIGNIF_BITS; i++) {\r\n            newSignif += (cop/signifB) << shift;\r\n            shift--;\r\n            cop = (cop % signifB) << 1;\r\n        }\r\n        return [newSign, newExp, newSignif];\r\n    }    \r\n\r\n    function compare(bytes32 a, bytes32 b) public constant returns (int8 result) {\r\n        uint256[3] memory aArray = toArray(a);\r\n        uint256[3] memory bArray = toArray(b);\r\n        return compareArrays(aArray, bArray);\r\n    }\r\n    \r\n    function compareArrays(uint256[3] aArray, uint256[3] bArray) internal constant returns (int8 result) {\r\n        if (aArray[0]==0 && bArray[0] == 0) {\r\n            return compareAbsArrays(aArray, bArray);\r\n        } else if (aArray[0]==1 && bArray[0] == 1) {\r\n            return -compareAbsArrays(aArray, bArray);\r\n        } else if (aArray[0] > bArray[0]) {\r\n            return -1;\r\n        }\r\n        return 1;\r\n    }\r\n\r\n    function compareAbs(bytes32 a, bytes32 b) public constant returns (int8 result) {\r\n        uint256[3] memory aArray = toArray(a);\r\n        uint256[3] memory bArray = toArray(b);\r\n        return compareAbsArrays(aArray, bArray);\r\n    }\r\n\r\n    function compareAbsArrays(uint256[3] aArray, uint256[3] bArray) internal constant returns (int8 result) {\r\n        if (aArray[1] > bArray[1]) {\r\n            return 1;\r\n        } else if (aArray[1] < bArray[1]) {\r\n            return -1;\r\n        } else {\r\n            if (aArray[2] > bArray[2]) {\r\n                return 1;\r\n            } else if (aArray[2] < bArray[2]) {\r\n                return -1;\r\n            }\r\n        }\r\n        return 0;\r\n    }\r\n\r\n    function log2bytes(bytes32 a) public constant returns (bytes32 result) {\r\n        uint256[3] memory aArray = toArray(a);\r\n        return fromArray(log2Array(aArray));\r\n    }\r\n    \r\n    function log2Array(uint256[3] aArray) internal constant returns (uint256[3] memory result) {\r\n        require(aArray[0] == 0);\r\n        result = initFromIntToArray(int256(aArray[1]) - int256(EXP_BIAS));\r\n        uint256[3] memory ONE = initFromIntToArray(1);\r\n        uint256[3] memory TWO = initFromIntToArray(2);\r\n        uint256[3] memory tmp = initFromIntToArray(int256(aArray[2]));\r\n        uint256[3] memory ZERO = [uint256(0), uint256(0), uint256(0)];\r\n        tmp[1] = tmp[1] - SIGNIF_BITS;\r\n        uint256 numIterations = 16;\r\n        for (uint256 i = 1; i <= numIterations; i++) {\r\n            tmp = mulArrays(tmp, tmp);\r\n            ZERO = mulArrays(ZERO, TWO);\r\n            if (i==0) {\r\n                return tmp;\r\n            }\r\n            if (compareArrays(tmp, TWO) == 1) {\r\n                ZERO = addArrays(ZERO, ONE);\r\n                tmp[1] = tmp[1] - 1;\r\n            }\r\n        }\r\n        ZERO[1] = ZERO[1] - numIterations;\r\n        // ZERO[1] = divArrays(ZERO, initFromIntToArray(int256(uint256(1) << numIterations)));\r\n        result = addArrays(result, ZERO);\r\n        return result;\r\n    }\r\n\r\n    function initFromInt(int256 a) public constant returns (bytes32 result) {\r\n        if (a == 0) {\r\n            return ZERO_BYTES;\r\n        }\r\n        uint256[3] memory tmp = initFromIntToArray(a);\r\n        return fromArray(tmp);\r\n    }\r\n    \r\n    function initFromIntToArray(int256 a) internal constant returns (uint256[3] memory result) {\r\n        if (a==0) {\r\n            return result;\r\n        }\r\n        int256 abs = a;\r\n        uint256 newSign = 0;\r\n        if (abs < 0) {\r\n            newSign = 1;\r\n            abs = -abs; \r\n        }\r\n        uint256 newExp = EXP_BIAS + SIGNIF_BITS;\r\n        uint256 newSignif = uint256(abs);\r\n        while (newSignif > SIGNIF_MAX) {\r\n            newSignif = newSignif >> 1;\r\n            newExp++;\r\n        }\r\n        while (newSignif < SIGNIF_MIN) {\r\n            newSignif = newSignif << 1;\r\n            newExp--;\r\n        }\r\n        assert(newSignif >= SIGNIF_MIN && newSignif <= SIGNIF_MAX);\r\n        assert(newExp < EXP_MAX && newExp > EXP_MIN);\r\n        return [newSign, newExp, newSignif];\r\n    }\r\n\r\n    function toBytes(uint256 x) constant returns (bytes b) {\r\n      b = new bytes(32);\r\n      assembly { mstore(add(b, 32), x) }\r\n    }\r\n\r\n    function toUint(bytes32 _number) constant returns (uint) {\r\n\r\n        return uint(_number);\r\n\r\n    }\r\n\r\n}",
  "sourcePath": "contracts/libraries/SafeMath.sol",
  "compiler": {
    "name": "solc",
    "version": "0.4.18+commit.9cf6e910.Emscripten.clang"
  },
  "schemaVersion": "1.0.1",
  "updatedAt": "2018-04-10T12:42:40.833Z"
}