{
  "contractName": "StringUtils",
  "abi": [
    {
      "constant": false,
      "inputs": [
        {
          "name": "_a",
          "type": "string"
        },
        {
          "name": "_b",
          "type": "string"
        }
      ],
      "name": "compare",
      "outputs": [
        {
          "name": "",
          "type": "int256"
        }
      ],
      "payable": false,
      "stateMutability": "nonpayable",
      "type": "function"
    },
    {
      "constant": false,
      "inputs": [
        {
          "name": "_a",
          "type": "string"
        },
        {
          "name": "_b",
          "type": "string"
        }
      ],
      "name": "equal",
      "outputs": [
        {
          "name": "",
          "type": "bool"
        }
      ],
      "payable": false,
      "stateMutability": "nonpayable",
      "type": "function"
    },
    {
      "constant": false,
      "inputs": [
        {
          "name": "_haystack",
          "type": "string"
        },
        {
          "name": "_needle",
          "type": "string"
        }
      ],
      "name": "indexOf",
      "outputs": [
        {
          "name": "",
          "type": "int256"
        }
      ],
      "payable": false,
      "stateMutability": "nonpayable",
      "type": "function"
    }
  ],
  "bytecode": "0x6060604052341561000f57600080fd5b6108a18061001e6000396000f300606060405260043610610057576000357c0100000000000000000000000000000000000000000000000000000000900463ffffffff1680633a96fdd71461005c57806346bdca9a146101055780638a0807b7146101b2575b600080fd5b6100ef600480803590602001908201803590602001908080601f0160208091040260200160405190810160405280939291908181526020018383808284378201915050505050509190803590602001908201803590602001908080601f0160208091040260200160405190810160405280939291908181526020018383808284378201915050505050509190505061025b565b6040518082815260200191505060405180910390f35b610198600480803590602001908201803590602001908080601f0160208091040260200160405190810160405280939291908181526020018383808284378201915050505050509190803590602001908201803590602001908080601f0160208091040260200160405190810160405280939291908181526020018383808284378201915050505050509190505061051f565b604051808215151515815260200191505060405180910390f35b610245600480803590602001908201803590602001908080601f0160208091040260200160405190810160405280939291908181526020018383808284378201915050505050509190803590602001908201803590602001908080601f01602080910402602001604051908101604052809392919081815260200183838082843782019150505050505091905050610535565b6040518082815260200191505060405180910390f35b6000610265610861565b61026d610861565b60008086935085925083519150818351101561028857825191505b600090505b818110156104cb5782818151811015156102a357fe5b9060200101517f010000000000000000000000000000000000000000000000000000000000000090047f0100000000000000000000000000000000000000000000000000000000000000027effffffffffffffffffffffffffffffffffffffffffffffffffffffffffffff1916848281518110151561031e57fe5b9060200101517f010000000000000000000000000000000000000000000000000000000000000090047f0100000000000000000000000000000000000000000000000000000000000000027effffffffffffffffffffffffffffffffffffffffffffffffffffffffffffff191610156103b9577fffffffffffffffffffffffffffffffffffffffffffffffffffffffffffffffff9450610515565b82818151811015156103c757fe5b9060200101517f010000000000000000000000000000000000000000000000000000000000000090047f0100000000000000000000000000000000000000000000000000000000000000027effffffffffffffffffffffffffffffffffffffffffffffffffffffffffffff1916848281518110151561044257fe5b9060200101517f010000000000000000000000000000000000000000000000000000000000000090047f0100000000000000000000000000000000000000000000000000000000000000027effffffffffffffffffffffffffffffffffffffffffffffffffffffffffffff191611156104be5760019450610515565b808060010191505061028d565b8251845110156104fd577fffffffffffffffffffffffffffffffffffffffffffffffffffffffffffffffff9450610515565b8251845111156105105760019450610515565b600094505b5050505092915050565b60008061052c848461025b565b14905092915050565b600061053f610861565b610547610861565b600080869350859250600184511080610561575060018351105b8061056d575083518351115b1561059a577fffffffffffffffffffffffffffffffffffffffffffffffffffffffffffffffff9450610857565b6fffffffffffffffffffffffffffffffff845111156105db577fffffffffffffffffffffffffffffffffffffffffffffffffffffffffffffffff9450610857565b60009150600090505b8351811015610833578260008151811015156105fc57fe5b9060200101517f010000000000000000000000000000000000000000000000000000000000000090047f0100000000000000000000000000000000000000000000000000000000000000027effffffffffffffffffffffffffffffffffffffffffffffffffffffffffffff1916848281518110151561067757fe5b9060200101517f010000000000000000000000000000000000000000000000000000000000000090047f0100000000000000000000000000000000000000000000000000000000000000027effffffffffffffffffffffffffffffffffffffffffffffffffffffffffffff1916141561082657600191505b82518210801561070157508351828201105b80156108025750828281518110151561071657fe5b9060200101517f010000000000000000000000000000000000000000000000000000000000000090047f0100000000000000000000000000000000000000000000000000000000000000027effffffffffffffffffffffffffffffffffffffffffffffffffffffffffffff19168483830181518110151561079357fe5b9060200101517f010000000000000000000000000000000000000000000000000000000000000090047f0100000000000000000000000000000000000000000000000000000000000000027effffffffffffffffffffffffffffffffffffffffffffffffffffffffffffff1916145b156108145781806001019250506106ef565b825182141561082557809450610857565b5b80806001019150506105e4565b7fffffffffffffffffffffffffffffffffffffffffffffffffffffffffffffffff94505b5050505092915050565b6020604051908101604052806000815250905600a165627a7a72305820a27573ce26bf3cf0775c340e4dfbc19a363a792666ce26dcd2073134bce6501b0029",
  "source": "pragma solidity ^0.4.17;\r\n\r\nlibrary StringUtils {\r\n\r\n    /// @dev Does a byte-by-byte lexicographical comparison of two strings.\r\n    /// @return a negative number if `_a` is smaller, zero if they are equal\r\n    /// and a positive numbe if `_b` is smaller\r\n\r\n    function compare(string _a, string _b) returns (int) {\r\n\r\n        bytes memory a = bytes(_a);\r\n        bytes memory b = bytes(_b);\r\n\r\n        uint minLength = a.length;\r\n\r\n        if (b.length < minLength) {\r\n\r\n            minLength = b.length;\r\n\r\n        }\r\n\t      \r\n        for (uint i = 0; i < minLength; i++) {\r\n\r\n            if (a[i] < b[i]) {\r\n\r\n                return -1;\r\n\r\n            } else if (a[i] > b[i]) {\r\n\r\n                return 1;\r\n\r\n            } \r\n\r\n        }\r\n\r\n        if (a.length < b.length) {\r\n\r\n            return -1;\r\n\r\n        } else if (a.length > b.length) {\r\n\r\n            return 1;\r\n\r\n        } else {\r\n\r\n            return 0;\r\n\r\n        }   \r\n\r\n    }\r\n\r\n    /// @dev Compares two strings and returns true iff they are equal.\r\n\r\n    function equal(string _a, string _b) returns (bool) {\r\n\r\n        return compare(_a, _b) == 0;\r\n\r\n    }\r\n\r\n    /// @dev Finds the index of the first occurrence of _needle in _haystack\r\n\r\n    function indexOf(string _haystack, string _needle) returns (int) {\r\n\r\n    \tbytes memory h = bytes(_haystack);\r\n    \tbytes memory n = bytes(_needle);\r\n\r\n    \tif(h.length < 1 || n.length < 1 || (n.length > h.length)) {\r\n\r\n            return -1;\r\n\r\n        } else if (h.length > (2**128 - 1)) {\r\n\r\n            return -1;\r\n\r\n        } else {\r\n    \t\r\n\t        uint subindex = 0;\r\n\r\n    \t    for (uint i = 0; i < h.length; i ++) {\r\n\r\n    \t\t          if (h[i] == n[0]) {\r\n\r\n    \t\t          subindex = 1;\r\n\r\n    \t\t          while(subindex < n.length && (i + subindex) < h.length && h[i + subindex] == n[subindex]) {\r\n\r\n    \t\t\t          subindex++;\r\n\r\n    \t\t          }\r\n\r\n    \t\t          if (subindex == n.length) {\r\n\r\n                        return int(i);\r\n\r\n                     }    \r\n\r\n    \t           }\r\n              }\r\n\r\n            return -1;\r\n\r\n        }\t\r\n\r\n    }\r\n  \r\n}",
  "sourcePath": "D:\\EthereumProjects\\work\\mula\\contracts\\libraries\\StringUtils.sol",
  "compiler": {
    "name": "solc",
    "version": "0.4.18+commit.9cf6e910.Emscripten.clang"
  },
  "schemaVersion": "1.0.1",
  "updatedAt": "2018-04-10T12:42:04.355Z"
}