{
  "contractName": "TokenController",
  "abi": [
    {
      "constant": false,
      "inputs": [
        {
          "name": "_Mula",
          "type": "address"
        }
      ],
      "name": "changeHYPToken",
      "outputs": [],
      "payable": false,
      "stateMutability": "nonpayable",
      "type": "function"
    },
    {
      "constant": false,
      "inputs": [
        {
          "name": "_Mula",
          "type": "address"
        },
        {
          "name": "_crowdsale",
          "type": "address"
        }
      ],
      "name": "initialize",
      "outputs": [],
      "payable": false,
      "stateMutability": "nonpayable",
      "type": "function"
    },
    {
      "constant": false,
      "inputs": [
        {
          "name": "_to",
          "type": "address"
        },
        {
          "name": "_amount",
          "type": "uint256"
        }
      ],
      "name": "allocateTokens",
      "outputs": [
        {
          "name": "",
          "type": "bool"
        }
      ],
      "payable": false,
      "stateMutability": "nonpayable",
      "type": "function"
    },
    {
      "constant": false,
      "inputs": [
        {
          "name": "_owned",
          "type": "address"
        }
      ],
      "name": "changeOwned",
      "outputs": [],
      "payable": false,
      "stateMutability": "nonpayable",
      "type": "function"
    },
    {
      "constant": false,
      "inputs": [
        {
          "name": "_crowdsale",
          "type": "address"
        }
      ],
      "name": "changeCrowdsale",
      "outputs": [],
      "payable": false,
      "stateMutability": "nonpayable",
      "type": "function"
    },
    {
      "inputs": [
        {
          "name": "_owned",
          "type": "address"
        }
      ],
      "payable": false,
      "stateMutability": "nonpayable",
      "type": "constructor"
    },
    {
      "payable": true,
      "stateMutability": "payable",
      "type": "fallback"
    },
    {
      "anonymous": false,
      "inputs": [
        {
          "indexed": true,
          "name": "to",
          "type": "address"
        },
        {
          "indexed": false,
          "name": "amount",
          "type": "uint256"
        }
      ],
      "name": "Allocate",
      "type": "event"
    }
  ],
  "bytecode": "0x6060604052341561000f57600080fd5b604051602080610a5d8339810160405280805190602001909190505080600160006101000a81548173ffffffffffffffffffffffffffffffffffffffff021916908373ffffffffffffffffffffffffffffffffffffffff160217905550506109e18061007c6000396000f30060606040526004361061006d576000357c0100000000000000000000000000000000000000000000000000000000900463ffffffff16806331d9dd8614610072578063485cc955146100ab57806386ce02851461010357806397ee47001461015d578063ad2b14d114610196575b600080fd5b341561007d57600080fd5b6100a9600480803573ffffffffffffffffffffffffffffffffffffffff169060200190919050506101cf565b005b34156100b657600080fd5b610101600480803573ffffffffffffffffffffffffffffffffffffffff1690602001909190803573ffffffffffffffffffffffffffffffffffffffff169060200190919050506102f4565b005b341561010e57600080fd5b610143600480803573ffffffffffffffffffffffffffffffffffffffff1690602001909190803590602001909190505061045b565b604051808215151515815260200191505060405180910390f35b341561016857600080fd5b610194600480803573ffffffffffffffffffffffffffffffffffffffff16906020019091905050610769565b005b34156101a157600080fd5b6101cd600480803573ffffffffffffffffffffffffffffffffffffffff1690602001909190505061088f565b005b600160009054906101000a900473ffffffffffffffffffffffffffffffffffffffff1673ffffffffffffffffffffffffffffffffffffffff1663893d20e86000604051602001526040518163ffffffff167c0100000000000000000000000000000000000000000000000000000000028152600401602060405180830381600087803b151561025d57600080fd5b6102c65a03f1151561026e57600080fd5b5050506040518051905073ffffffffffffffffffffffffffffffffffffffff163373ffffffffffffffffffffffffffffffffffffffff161415156102b157600080fd5b806000806101000a81548173ffffffffffffffffffffffffffffffffffffffff021916908373ffffffffffffffffffffffffffffffffffffffff16021790555050565b600160009054906101000a900473ffffffffffffffffffffffffffffffffffffffff1673ffffffffffffffffffffffffffffffffffffffff1663893d20e86000604051602001526040518163ffffffff167c0100000000000000000000000000000000000000000000000000000000028152600401602060405180830381600087803b151561038257600080fd5b6102c65a03f1151561039357600080fd5b5050506040518051905073ffffffffffffffffffffffffffffffffffffffff163373ffffffffffffffffffffffffffffffffffffffff161415156103d657600080fd5b816000806101000a81548173ffffffffffffffffffffffffffffffffffffffff021916908373ffffffffffffffffffffffffffffffffffffffff16021790555080600260006101000a81548173ffffffffffffffffffffffffffffffffffffffff021916908373ffffffffffffffffffffffffffffffffffffffff1602179055505050565b6000600160009054906101000a900473ffffffffffffffffffffffffffffffffffffffff1673ffffffffffffffffffffffffffffffffffffffff1663893d20e86000604051602001526040518163ffffffff167c0100000000000000000000000000000000000000000000000000000000028152600401602060405180830381600087803b15156104eb57600080fd5b6102c65a03f115156104fc57600080fd5b5050506040518051905073ffffffffffffffffffffffffffffffffffffffff163373ffffffffffffffffffffffffffffffffffffffff16148061058c57503373ffffffffffffffffffffffffffffffffffffffff16600260009054906101000a900473ffffffffffffffffffffffffffffffffffffffff1673ffffffffffffffffffffffffffffffffffffffff16145b151561059757600080fd5b6000809054906101000a900473ffffffffffffffffffffffffffffffffffffffff1673ffffffffffffffffffffffffffffffffffffffff166305259891836040518263ffffffff167c010000000000000000000000000000000000000000000000000000000002815260040180828152602001915050600060405180830381600087803b151561062657600080fd5b6102c65a03f1151561063757600080fd5b5050506000809054906101000a900473ffffffffffffffffffffffffffffffffffffffff1673ffffffffffffffffffffffffffffffffffffffff1663b08079a684846040518363ffffffff167c0100000000000000000000000000000000000000000000000000000000028152600401808373ffffffffffffffffffffffffffffffffffffffff1673ffffffffffffffffffffffffffffffffffffffff16815260200182815260200192505050600060405180830381600087803b15156106fd57600080fd5b6102c65a03f1151561070e57600080fd5b5050508273ffffffffffffffffffffffffffffffffffffffff167f249d8eb76d5a22983620d741de2470148d1a9a26ab923aec4262770690d11ebc836040518082815260200191505060405180910390a26001905092915050565b600160009054906101000a900473ffffffffffffffffffffffffffffffffffffffff1673ffffffffffffffffffffffffffffffffffffffff1663893d20e86000604051602001526040518163ffffffff167c0100000000000000000000000000000000000000000000000000000000028152600401602060405180830381600087803b15156107f757600080fd5b6102c65a03f1151561080857600080fd5b5050506040518051905073ffffffffffffffffffffffffffffffffffffffff163373ffffffffffffffffffffffffffffffffffffffff1614151561084b57600080fd5b80600160006101000a81548173ffffffffffffffffffffffffffffffffffffffff021916908373ffffffffffffffffffffffffffffffffffffffff16021790555050565b600160009054906101000a900473ffffffffffffffffffffffffffffffffffffffff1673ffffffffffffffffffffffffffffffffffffffff1663893d20e86000604051602001526040518163ffffffff167c0100000000000000000000000000000000000000000000000000000000028152600401602060405180830381600087803b151561091d57600080fd5b6102c65a03f1151561092e57600080fd5b5050506040518051905073ffffffffffffffffffffffffffffffffffffffff163373ffffffffffffffffffffffffffffffffffffffff1614151561097157600080fd5b80600260006101000a81548173ffffffffffffffffffffffffffffffffffffffff021916908373ffffffffffffffffffffffffffffffffffffffff160217905550505600a165627a7a72305820646e03158491718d85ffca3bf355be2eb5f4abe815abc4dc9e5a1c73e29d84830029",
  "source": "pragma solidity ^0.4.17;\r\n\r\n/// @author Stefan Ionescu - <stefanionescu@protonmail.com>\r\n\r\nimport \"contracts/Owned.sol\";\r\nimport \"contracts/interfaces/MulaTokenInterface.sol\";\r\nimport \"contracts/interfaces/TokenControllerInterface.sol\";\r\n\r\ncontract TokenController is TokenControllerInterface {\r\n\r\n    MulaTokenInterface internal MulaToken;\r\n    Owned private owned;\r\n\r\n    address private crowdsale;\r\n\r\n    modifier acceptedOwners() {\r\n        require(msg.sender == owned.getOwner() || crowdsale == msg.sender);\r\n        _;\r\n    }\r\n\r\n    modifier onlyOwner() {\r\n\r\n        require(msg.sender == owned.getOwner());\r\n        _;\r\n\r\n    }\r\n\r\n    function TokenController(address _owned) {\r\n\r\n        owned = Owned(_owned);\r\n\r\n    }\r\n\r\n    function() payable {\r\n\r\n        revert();\r\n\r\n    }\r\n\r\n    function initialize(address _Mula, address _crowdsale) public onlyOwner {\r\n\r\n        MulaToken = MulaTokenInterface(_Mula);\r\n\r\n        crowdsale = _crowdsale;\r\n\r\n    }\r\n\r\n    function changeHYPToken(address _Mula) public onlyOwner {\r\n\r\n        MulaToken = MulaTokenInterface(_Mula);\r\n\r\n    }\r\n\r\n    function changeOwned(address _owned) public onlyOwner {\r\n\r\n        owned = Owned(_owned);\r\n\r\n    }\r\n\r\n    function changeCrowdsale(address _crowdsale) public onlyOwner {\r\n\r\n        crowdsale = _crowdsale;\r\n\r\n    }\r\n\r\n    function allocateTokens(address _to, uint256 _amount) public acceptedOwners returns (bool) {\r\n        MulaToken.increaseCirculation(_amount);\r\n        MulaToken.addToBalance(_to, _amount);\r\n        Allocate(_to, _amount);\r\n        return true;\r\n    }\r\n\r\n}\r\n",
  "sourcePath": "D:\\EthereumProjects\\work\\mula\\contracts\\TokenController.sol",
  "compiler": {
    "name": "solc",
    "version": "0.4.18+commit.9cf6e910.Emscripten.clang"
  },
  "schemaVersion": "1.0.1",
  "updatedAt": "2018-04-10T12:42:43.221Z"
}